{
	"data": {
		"bytecode": {
			"linkReferences": {},
			"object": "608060405262000019670de0b6b3a76400006002620000bc565b6001556103e8600455670de0b6b3a764000060155568056bc75e2d6310000060165534801562000047575f80fd5b5060405162002b4538038062002b458339810160408190526200006a9162000102565b60015f55600280546001600160a01b03199081163317909155600580546001600160a01b0395861690831617905560068054938516938216939093179092556003805491909316911617905562000149565b8082028115828204841417620000e057634e487b7160e01b5f52601160045260245ffd5b92915050565b80516001600160a01b0381168114620000fd575f80fd5b919050565b5f805f6060848603121562000115575f80fd5b6200012084620000e6565b92506200013060208501620000e6565b91506200014060408501620000e6565b90509250925092565b6129ee80620001575f395ff3fe608060405234801561000f575f80fd5b5060043610610297575f3560e01c806390619fa211610161578063c85e3499116100ca578063e149628611610084578063e14962861461067d578063e2eb41ff14610686578063f538fca41461073a578063fa0116c01461074d578063fb632b7c14610756578063fc0c546a1461075f575f80fd5b8063c85e349914610629578063cf24141a14610632578063d7f5e9131461063b578063d8404d1714610644578063dbbe255014610657578063dcbad90d1461066a575f80fd5b8063a5eb64e11161011b578063a5eb64e1146105ae578063a76594bf146105b7578063aaf5eb68146105bf578063ac451185146105ce578063b6b55f25146105ee578063bb2ea49a14610601575f80fd5b806390619fa21461053757806392a52e811461054a57806395dd9a3e146105695780639619367d1461057c578063a2f77bcc14610585578063a3f67d6d146105a5575f80fd5b8063322668a411610203578063773ed91e116101bd578063773ed91e146104cf5780637db8177b146104e2578063881eff1e146104eb5780638863dd1a146104fe57806388ea41b9146105115780638da5cb5b14610524575f80fd5b8063322668a4146104225780633c28f9ce1461042b5780633ed5cf7e1461043e5780633ef1b18114610451578063472016da146104645780635d602c00146104a4575f80fd5b80631c4b774b116102545780631c4b774b146103b75780631f69565f146103ca57806322d4bcbd146103ea5780632e1a7d4d146103f35780632e5b21681461040657806331cd3e7b1461040f575f80fd5b806307964f5e1461029b5780630a5694c2146102b05780630d2dce22146102d65780630f1bf454146102f6578063117a5b901461032857806312508ea4146103a4575b5f80fd5b6102ae6102a93660046123e8565b610772565b005b6102c36102be366004612423565b610cb4565b6040519081526020015b60405180910390f35b6102e96102e43660046123e8565b610cdf565b6040516102cd919061244b565b61031b6103043660046124ed565b5f908152600b602052604090206008015460ff1690565b6040516102cd9190612538565b61038f6103363660046124ed565b600b6020525f908152604090208054600182015460028301546003840154600485015460058601546006870154600788015460089098015496976001600160a01b0390961696949593949293919260ff91821692911689565b6040516102cd99989796959493929190612546565b6102ae6103b23660046125b1565b610ec0565b6102c36103c53660046124ed565b611311565b6103dd6103d83660046125df565b611333565b6040516102cd9190612645565b6102c360045481565b6102ae6104013660046124ed565b6115b2565b6102c360165481565b6102ae61041d3660046124ed565b6116ee565b6102c360105481565b6102ae610439366004612423565b61171d565b6102ae61044c3660046124ed565b611832565b6102ae61045f3660046126ab565b61193b565b61048c6104723660046124ed565b60086020525f90815260409020546001600160a01b031681565b6040516001600160a01b0390911681526020016102cd565b6102c36104b23660046125df565b6001600160a01b03165f9081526007602052604090206001015490565b60035461048c906001600160a01b031681565b6102c3600f5481565b6102ae6104f93660046124ed565b611992565b6102ae61050c3660046125df565b6119c1565b6102ae61051f3660046124ed565b611a0d565b60025461048c906001600160a01b031681565b6102ae6105453660046124ed565b611a3c565b6102c36105583660046124ed565b60126020525f908152604090205481565b6102ae6105773660046124ed565b611b74565b6102c360155481565b6105986105933660046124ed565b611ba3565b6040516102cd9190612742565b6102c360095481565b6102c360145481565b6009546102c3565b6102c3670de0b6b3a764000081565b6105e16105dc3660046123e8565b611c5f565b6040516102cd9190612751565b6102ae6105fc3660046124ed565b611dfb565b6102c361060f3660046125df565b6001600160a01b03165f9081526011602052604090205490565b6102c360135481565b6102c360015481565b6102c3600e5481565b6102ae6106523660046124ed565b611fb6565b6102ae6106653660046125df565b6120c0565b60065461048c906001600160a01b031681565b6102c3600a5481565b6106ea6106943660046125df565b600760208190525f91825260409091208054600182015460028301546003840154600485015460058601546006870154978701546008909701546001600160a01b03909616979496939592949193909260ff1689565b604080516001600160a01b03909a168a5260208a0198909852968801959095526060870193909352608086019190915260a085015260c084015260e08301521515610100820152610120016102cd565b6105e161074836600461279f565b61210c565b6102c3600d5481565b6102c3600c5481565b60055461048c906001600160a01b031681565b6006546001600160a01b031633146107dd5760405162461bcd60e51b815260206004820152602360248201527f4f6e6c792072616e646f6d2067656e657261746f722063616e2063616c6c207460448201526268697360e81b60648201526084015b60405180910390fd5b5f828152601260209081526040808320548352600b909152812090600882015460ff16600281111561081157610811612504565b146108515760405162461bcd60e51b815260206004820152601060248201526f47616d65206e6f742070656e64696e6760801b60448201526064016107d4565b8281600501541461089a5760405162461bcd60e51b8152602060048201526013602482015272111a5cdb585d18da081c995c5d595cdd081a59606a1b60448201526064016107d4565b6004810154156108dd5760405162461bcd60e51b815260206004820152600e60248201526d105b1c9958591e48199a5b1b195960921b60448201526064016107d4565b60048101829055604080516020808201859052818301869052825180830384018152606090920190925280519101205f9061091a906002906127e3565b600683015460018401546001600160a01b03165f9081526007602052604090209115925060ff1615158214908115610ac6575f670de0b6b3a76400006001548660020154610968919061280a565b6109729190612821565b90508082600101546109849190612834565b60018301556003820154610999908290612834565b6003830155600582018054905f6109af83612847565b919050555080600f546109c29190612834565b600f55600a546109d3908290612834565b600a55600d8054905f6109e583612847565b909155505060028501546109f9908261285f565b60135410610a25576002850154610a10908261285f565b601354610a1d919061285f565b601355610a37565b80601454610a339190612834565b6014555b6003850181905560088501805460ff19166001908117909155808601545f898152601260209081526040918290205460028a015483519182529181018c9052918201526060810192909252608082018390526001600160a01b0316907f0b24f937f714621daf91d607090897a51e3912600d42206a0ca82bdf05069ad09060a00160405180910390a250610cac565b83600201548160040154610ada9190612834565b6004820155600681018054905f610af083612847565b91905055508360020154601054610b079190612834565b601055600e8054905f610b1983612847565b91905055505f612710600454612710610b32919061285f565b8660020154610b41919061280a565b610b4b9190612821565b90505f6127106004548760020154610b63919061280a565b610b6d9190612821565b905081601354610b7d9190612834565b60135560088601805460ff191660021790558015610c34576003546001600160a01b031615610c225760055460035460405163a9059cbb60e01b81526001600160a01b0391821660048201526024810184905291169063a9059cbb906044016020604051808303815f875af1158015610bf8573d5f803e3d5ffd5b505050506040513d601f19601f82011682018060405250810190610c1c9190612872565b50610c34565b80601354610c309190612834565b6013555b60018601545f8981526012602090815260408083205460028b015482519182529281018d9052908101919091526060810182905260808101919091526001600160a01b03909116907f0b24f937f714621daf91d607090897a51e3912600d42206a0ca82bdf05069ad09060a00160405180910390a250505b505050505050565b6011602052815f5260405f208181548110610ccd575f80fd5b905f5260205f20015f91509150505481565b6060815f03610cee5760095491505b6009548311610eba575f610d028385612834565b9050600954811115610d1357506009545b610d1d848261285f565b67ffffffffffffffff811115610d3557610d3561288d565b604051908082528060200260200182016040528015610db757816020015b610da46040518061012001604052805f6001600160a01b031681526020015f81526020015f81526020015f81526020015f81526020015f81526020015f81526020015f81526020015f151581525090565b815260200190600190039081610d535790505b5091505f5b610dc6858361285f565b811015610eb75760075f60085f60018986600954610de4919061285f565b610dee919061285f565b610df8919061285f565b815260208082019290925260409081015f908120546001600160a01b03908116855284840195909552928101909220825161012081018452815490941684526001810154918401919091526002810154918301919091526003810154606083015260048101546080830152600581015460a0830152600681015460c0830152600781015460e08301526008015460ff1615156101008201528351849083908110610ea457610ea46128a1565b6020908102919091010152600101610dbc565b50505b92915050565b610ec8612348565b335f908152600760205260409020601554831015610f155760405162461bcd60e51b815260206004820152600a60248201526942657420746f206c6f7760b01b60448201526064016107d4565b601654831115610f565760405162461bcd60e51b815260206004820152600c60248201526b10995d081d1bc81a1a59da1d60a21b60448201526064016107d4565b8281600101541015610f9f5760405162461bcd60e51b8152602060048201526012602482015271139bdd08195b9bdd59da0819195c1bdcda5d60721b60448201526064016107d4565b600881015460ff1615610fea5760405162461bcd60e51b81526020600482015260136024820152724e6f7420616c6c6f77656420666f7220796f7560681b60448201526064016107d4565b5f670de0b6b3a764000060015485611002919061280a565b61100c9190612821565b905080601354116110525760405162461bcd60e51b815260206004820152601060248201526f4e6f20636f696e7320696e2062616e6b60801b60448201526064016107d4565b600c8054905f61106183612847565b909155505081546001600160a01b031633146110b9578154336001600160a01b031991821681178455600980545f9081526008602052604081208054909416909217909255815491906110b383612847565b91905055505b8382600101546110c9919061285f565b600183015560028201546110de908590612834565b6002830155426007830155600a546110f790859061285f565b600a5560065460408051630da9f75560e41b815290515f926001600160a01b03169163da9f7550916004808301926020929190829003018187875af1158015611142573d5f803e3d5ffd5b505050506040513d601f19601f8201168201806040525081019061116691906128b5565b9050604051806101200160405280600c548152602001336001600160a01b031681526020018681526020015f81526020015f801b815260200182815260200185151581526020014281526020015f60028111156111c5576111c5612504565b9052600c545f908152600b60209081526040918290208351815590830151600180830180546001600160a01b039093166001600160a01b03199093169290921790915591830151600280830191909155606084015160038301556080840151600483015560a0840151600583015560c084015160068301805491151560ff1992831617905560e08501516007840155610100850151600884018054949591949093921691849081111561127a5761127a612504565b021790555050335f818152601160209081526040808320600c80548254600181018455928652848620909201919091555486845260128352928190208390558051928352908201859052810188905286151560608201529091507f789d99806fb4e85950098066778ce84872c9534fcfb0cddbdaaf208d6a9692319060800160405180910390a250505061130d60015f55565b5050565b5f670de0b6b3a764000060015483611329919061280a565b610eba9190612821565b6113656040518060a0016040528060608152602001606081526020015f60ff1681526020015f81526020015f81525090565b60055f9054906101000a90046001600160a01b03166001600160a01b03166395d89b416040518163ffffffff1660e01b81526004015f60405180830381865afa1580156113b4573d5f803e3d5ffd5b505050506040513d5f823e601f3d908101601f191682016040526113db91908101906128cc565b8152600554604080516306fdde0360e01b815290516001600160a01b03909216916306fdde03916004808201925f929091908290030181865afa158015611424573d5f803e3d5ffd5b505050506040513d5f823e601f3d908101601f1916820160405261144b91908101906128cc565b6020808301919091526005546040805163313ce56760e01b815290516001600160a01b039092169263313ce567926004808401938290030181865afa158015611496573d5f803e3d5ffd5b505050506040513d601f19601f820116820180604052508101906114ba9190612974565b60ff1660408281019190915260055490516370a0823160e01b81526001600160a01b038481166004830152909116906370a0823190602401602060405180830381865afa15801561150d573d5f803e3d5ffd5b505050506040513d601f19601f8201168201806040525081019061153191906128b5565b6060820152600554604051636eb1769f60e11b81526001600160a01b0384811660048301523060248301529091169063dd62ed3e90604401602060405180830381865afa158015611584573d5f803e3d5ffd5b505050506040513d601f19601f820116820180604052508101906115a891906128b5565b6080820152919050565b6115ba612348565b335f90815260076020526040902060018101548211156116135760405162461bcd60e51b8152602060048201526014602482015273125b9cdd59999a58da595b9d0819195c1bdcda5d60621b60448201526064016107d4565b818160010154611623919061285f565b6001820155600a5461163690839061285f565b600a5560055460405163a9059cbb60e01b8152336004820152602481018490526001600160a01b039091169063a9059cbb906044016020604051808303815f875af1158015611687573d5f803e3d5ffd5b505050506040513d601f19601f820116820180604052508101906116ab9190612872565b5060405182815233907f884edad9ce6fa2440d8a54cc123490eb96d2768479d49ff9c7366125a94243649060200160405180910390a2506116eb60015f55565b50565b6002546001600160a01b031633146117185760405162461bcd60e51b81526004016107d490612994565b600155565b6002546001600160a01b031633146117475760405162461bcd60e51b81526004016107d490612994565b6005546001600160a01b03908116908316036117b95760405162461bcd60e51b815260206004820152602b60248201527f43616e74207265636f7765722067616d6520746f6b656e2e204f6e6c7920626160448201526a6e6b20776974686472617760a81b60648201526084016107d4565b60025460405163a9059cbb60e01b81526001600160a01b039182166004820152602481018390529083169063a9059cbb906044016020604051808303815f875af1158015611809573d5f803e3d5ffd5b505050506040513d601f19601f8201168201806040525081019061182d9190612872565b505050565b61183a612348565b6002546001600160a01b031633146118645760405162461bcd60e51b81526004016107d490612994565b5f81116118a85760405162461bcd60e51b81526020600482015260126024820152710416d6f756e74206d757374206265203e20360741b60448201526064016107d4565b6005546040516323b872dd60e01b8152336004820152306024820152604481018390526001600160a01b03909116906323b872dd906064016020604051808303815f875af11580156118fc573d5f803e3d5ffd5b505050506040513d601f19601f820116820180604052508101906119209190612872565b508060135461192f9190612834565b6013556116eb60015f55565b6002546001600160a01b031633146119655760405162461bcd60e51b81526004016107d490612994565b6001600160a01b03919091165f908152600760205260409020600801805460ff1916911515919091179055565b6002546001600160a01b031633146119bc5760405162461bcd60e51b81526004016107d490612994565b601655565b6002546001600160a01b031633146119eb5760405162461bcd60e51b81526004016107d490612994565b600280546001600160a01b0319166001600160a01b0392909216919091179055565b6002546001600160a01b03163314611a375760405162461bcd60e51b81526004016107d490612994565b601555565b611a44612348565b6002546001600160a01b03163314611a6e5760405162461bcd60e51b81526004016107d490612994565b5f8111611ab25760405162461bcd60e51b81526020600482015260126024820152710416d6f756e74206d757374206265203e20360741b60448201526064016107d4565b6005546040516323b872dd60e01b8152336004820152306024820152604481018390526001600160a01b03909116906323b872dd906064016020604051808303815f875af1158015611b06573d5f803e3d5ffd5b505050506040513d601f19601f82011682018060405250810190611b2a9190612872565b505f601454118015611b3e57506014548110155b15611b4c575f601455611b6b565b60145415611b6b578060145f828254611b65919061285f565b90915550505b6116eb60015f55565b6002546001600160a01b03163314611b9e5760405162461bcd60e51b81526004016107d490612994565b600455565b611bab61239f565b5f828152600b60209081526040918290208251610120810184528154815260018201546001600160a01b031692810192909252600280820154938301939093526003810154606083015260048101546080830152600581015460a0830152600681015460ff908116151560c0840152600782015460e0840152600882015492939192610100850192911690811115611c4557611c45612504565b6002811115611c5657611c56612504565b90525092915050565b6060815f03611c6e57600c5491505b5f611c798385612834565b9050600c54841115611c8b5750610eba565b600c54811115611c9a5750600c545b611ca4848261285f565b67ffffffffffffffff811115611cbc57611cbc61288d565b604051908082528060200260200182016040528015611cf557816020015b611ce261239f565b815260200190600190039081611cda5790505b5091505f5b611d04858361285f565b811015610eb757600b5f8683600c54611d1d919061285f565b611d27919061285f565b815260208082019290925260409081015f208151610120810183528154815260018201546001600160a01b031693810193909352600280820154928401929092526003810154606084015260048101546080840152600581015460a0840152600681015460ff908116151560c0850152600782015460e08501526008820154919261010085019290911690811115611dc157611dc1612504565b6002811115611dd257611dd2612504565b81525050838281518110611de857611de86128a1565b6020908102919091010152600101611cfa565b611e03612348565b5f8111611e525760405162461bcd60e51b815260206004820152601a60248201527f4465706f73697420616d6f756e74206d757374206265203e203000000000000060448201526064016107d4565b6005546040516323b872dd60e01b8152336004820152306024820152604481018390526001600160a01b03909116906323b872dd906064016020604051808303815f875af1158015611ea6573d5f803e3d5ffd5b505050506040513d601f19601f82011682018060405250810190611eca9190612872565b50335f818152600760205260409020546001600160a01b031614611f3857335f81815260076020908152604080832080546001600160a01b031990811686179091556009805485526008909352908320805490911690931790925581549190611f3283612847565b91905055505b335f90815260076020526040902060010154611f55908290612834565b335f90815260076020526040902060010155600a54611f75908290612834565b600a5560405181815233907fe1fffcc4923d04b559f4d29a8bfc6cda04eb5b0d3c460751c2402c5c5cc9109c9060200160405180910390a26116eb60015f55565b611fbe612348565b6002546001600160a01b03163314611fe85760405162461bcd60e51b81526004016107d490612994565b60135481111561202f5760405162461bcd60e51b81526020600482015260126024820152714e6f7420656e6f75676820696e2062616e6b60701b60448201526064016107d4565b8060135461203d919061285f565b60135560055460025460405163a9059cbb60e01b81526001600160a01b0391821660048201526024810184905291169063a9059cbb906044016020604051808303815f875af1158015612092573d5f803e3d5ffd5b505050506040513d601f19601f820116820180604052508101906120b69190612872565b506116eb60015f55565b6002546001600160a01b031633146120ea5760405162461bcd60e51b81526004016107d490612994565b600380546001600160a01b0319166001600160a01b0392909216919091179055565b6060815f03612130576001600160a01b0384165f9081526011602052604090205491505b5f61213b8385612834565b6001600160a01b0386165f908152601160205260409020549091508411156121635750612341565b6001600160a01b0385165f9081526011602052604090205481111561219c57506001600160a01b0384165f908152601160205260409020545b6121a6848261285f565b67ffffffffffffffff8111156121be576121be61288d565b6040519080825280602002602001820160405280156121f757816020015b6121e461239f565b8152602001906001900390816121dc5790505b5091505f5b612206858361285f565b81101561233e576001600160a01b0386165f9081526011602052604081208054600b929190600190899061223b90879061285f565b612245919061285f565b61224f919061285f565b8154811061225f5761225f6128a1565b5f918252602080832090910154835282810193909352604091820190208151610120810183528154815260018201546001600160a01b031693810193909352600280820154928401929092526003810154606084015260048101546080840152600581015460a0840152600681015460ff908116151560c0850152600782015460e0850152600882015491926101008501929091169081111561230457612304612504565b600281111561231557612315612504565b8152505083828151811061232b5761232b6128a1565b60209081029190910101526001016121fc565b50505b9392505050565b60025f54036123995760405162461bcd60e51b815260206004820152601f60248201527f5265656e7472616e637947756172643a207265656e7472616e742063616c6c0060448201526064016107d4565b60025f55565b60408051610120810182525f80825260208201819052918101829052606081018290526080810182905260a0810182905260c0810182905260e081018290529061010082015290565b5f80604083850312156123f9575f80fd5b50508035926020909101359150565b80356001600160a01b038116811461241e575f80fd5b919050565b5f8060408385031215612434575f80fd5b61243d83612408565b946020939093013593505050565b602080825282518282018190525f919060409081850190868401855b828110156124e057815180516001600160a01b0316855286810151878601528581015186860152606080820151908601526080808201519086015260a0808201519086015260c0808201519086015260e08082015190860152610100908101511515908501526101209093019290850190600101612467565b5091979650505050505050565b5f602082840312156124fd575f80fd5b5035919050565b634e487b7160e01b5f52602160045260245ffd5b6003811061253457634e487b7160e01b5f52602160045260245ffd5b9052565b60208101610eba8284612518565b8981526001600160a01b038916602082015260408101889052606081018790526080810186905260a0810185905283151560c082015260e081018390526101208101612596610100830184612518565b9a9950505050505050505050565b80151581146116eb575f80fd5b5f80604083850312156125c2575f80fd5b8235915060208301356125d4816125a4565b809150509250929050565b5f602082840312156125ef575f80fd5b61234182612408565b5f5b838110156126125781810151838201526020016125fa565b50505f910152565b5f81518084526126318160208601602086016125f8565b601f01601f19169290920160200192915050565b602081525f825160a0602084015261266060c084018261261a565b90506020840151601f1984830301604085015261267d828261261a565b91505060ff604085015116606084015260608401516080840152608084015160a08401528091505092915050565b5f80604083850312156126bc575f80fd5b6126c583612408565b915060208301356125d4816125a4565b8051825260018060a01b03602082015116602083015260408101516040830152606081015160608301526080810151608083015260a081015160a083015260c0810151151560c083015260e081015160e08301526101008082015161273c82850182612518565b50505050565b6101208101610eba82846126d5565b602080825282518282018190525f9190848201906040850190845b818110156127935761277f8385516126d5565b92840192610120929092019160010161276c565b50909695505050505050565b5f805f606084860312156127b1575f80fd5b6127ba84612408565b95602085013595506040909401359392505050565b634e487b7160e01b5f52601260045260245ffd5b5f826127f1576127f16127cf565b500690565b634e487b7160e01b5f52601160045260245ffd5b8082028115828204841417610eba57610eba6127f6565b5f8261282f5761282f6127cf565b500490565b80820180821115610eba57610eba6127f6565b5f60018201612858576128586127f6565b5060010190565b81810381811115610eba57610eba6127f6565b5f60208284031215612882575f80fd5b8151612341816125a4565b634e487b7160e01b5f52604160045260245ffd5b634e487b7160e01b5f52603260045260245ffd5b5f602082840312156128c5575f80fd5b5051919050565b5f602082840312156128dc575f80fd5b815167ffffffffffffffff808211156128f3575f80fd5b818401915084601f830112612906575f80fd5b8151818111156129185761291861288d565b604051601f8201601f19908116603f011681019083821181831017156129405761294061288d565b81604052828152876020848701011115612958575f80fd5b6129698360208301602088016125f8565b979650505050505050565b5f60208284031215612984575f80fd5b815160ff81168114612341575f80fd5b6020808252600a908201526927b7363c9037bbb732b960b11b60408201526060019056fea26469706673582212205443d41a16b7e926cdaa1749a4d17d607bcb2c13e1900f8ecee44726cf30db2964736f6c63430008180033",
			"opcodes": "PUSH1 0x80 PUSH1 0x40 MSTORE PUSH3 0x19 PUSH8 0xDE0B6B3A7640000 PUSH1 0x2 PUSH3 0xBC JUMP JUMPDEST PUSH1 0x1 SSTORE PUSH2 0x3E8 PUSH1 0x4 SSTORE PUSH8 0xDE0B6B3A7640000 PUSH1 0x15 SSTORE PUSH9 0x56BC75E2D63100000 PUSH1 0x16 SSTORE CALLVALUE DUP1 ISZERO PUSH3 0x47 JUMPI PUSH0 DUP1 REVERT JUMPDEST POP PUSH1 0x40 MLOAD PUSH3 0x2B45 CODESIZE SUB DUP1 PUSH3 0x2B45 DUP4 CODECOPY DUP2 ADD PUSH1 0x40 DUP2 SWAP1 MSTORE PUSH3 0x6A SWAP2 PUSH3 0x102 JUMP JUMPDEST PUSH1 0x1 PUSH0 SSTORE PUSH1 0x2 DUP1 SLOAD PUSH1 0x1 PUSH1 0x1 PUSH1 0xA0 SHL SUB NOT SWAP1 DUP2 AND CALLER OR SWAP1 SWAP2 SSTORE PUSH1 0x5 DUP1 SLOAD PUSH1 0x1 PUSH1 0x1 PUSH1 0xA0 SHL SUB SWAP6 DUP7 AND SWAP1 DUP4 AND OR SWAP1 SSTORE PUSH1 0x6 DUP1 SLOAD SWAP4 DUP6 AND SWAP4 DUP3 AND SWAP4 SWAP1 SWAP4 OR SWAP1 SWAP3 SSTORE PUSH1 0x3 DUP1 SLOAD SWAP2 SWAP1 SWAP4 AND SWAP2 AND OR SWAP1 SSTORE PUSH3 0x149 JUMP JUMPDEST DUP1 DUP3 MUL DUP2 ISZERO DUP3 DUP3 DIV DUP5 EQ OR PUSH3 0xE0 JUMPI PUSH4 0x4E487B71 PUSH1 0xE0 SHL PUSH0 MSTORE PUSH1 0x11 PUSH1 0x4 MSTORE PUSH1 0x24 PUSH0 REVERT JUMPDEST SWAP3 SWAP2 POP POP JUMP JUMPDEST DUP1 MLOAD PUSH1 0x1 PUSH1 0x1 PUSH1 0xA0 SHL SUB DUP2 AND DUP2 EQ PUSH3 0xFD JUMPI PUSH0 DUP1 REVERT JUMPDEST SWAP2 SWAP1 POP JUMP JUMPDEST PUSH0 DUP1 PUSH0 PUSH1 0x60 DUP5 DUP7 SUB SLT ISZERO PUSH3 0x115 JUMPI PUSH0 DUP1 REVERT JUMPDEST PUSH3 0x120 DUP5 PUSH3 0xE6 JUMP JUMPDEST SWAP3 POP PUSH3 0x130 PUSH1 0x20 DUP6 ADD PUSH3 0xE6 JUMP JUMPDEST SWAP2 POP PUSH3 0x140 PUSH1 0x40 DUP6 ADD PUSH3 0xE6 JUMP JUMPDEST SWAP1 POP SWAP3 POP SWAP3 POP SWAP3 JUMP JUMPDEST PUSH2 0x29EE DUP1 PUSH3 0x157 PUSH0 CODECOPY PUSH0 RETURN INVALID PUSH1 0x80 PUSH1 0x40 MSTORE CALLVALUE DUP1 ISZERO PUSH2 0xF JUMPI PUSH0 DUP1 REVERT JUMPDEST POP PUSH1 0x4 CALLDATASIZE LT PUSH2 0x297 JUMPI PUSH0 CALLDATALOAD PUSH1 0xE0 SHR DUP1 PUSH4 0x90619FA2 GT PUSH2 0x161 JUMPI DUP1 PUSH4 0xC85E3499 GT PUSH2 0xCA JUMPI DUP1 PUSH4 0xE1496286 GT PUSH2 0x84 JUMPI DUP1 PUSH4 0xE1496286 EQ PUSH2 0x67D JUMPI DUP1 PUSH4 0xE2EB41FF EQ PUSH2 0x686 JUMPI DUP1 PUSH4 0xF538FCA4 EQ PUSH2 0x73A JUMPI DUP1 PUSH4 0xFA0116C0 EQ PUSH2 0x74D JUMPI DUP1 PUSH4 0xFB632B7C EQ PUSH2 0x756 JUMPI DUP1 PUSH4 0xFC0C546A EQ PUSH2 0x75F JUMPI PUSH0 DUP1 REVERT JUMPDEST DUP1 PUSH4 0xC85E3499 EQ PUSH2 0x629 JUMPI DUP1 PUSH4 0xCF24141A EQ PUSH2 0x632 JUMPI DUP1 PUSH4 0xD7F5E913 EQ PUSH2 0x63B JUMPI DUP1 PUSH4 0xD8404D17 EQ PUSH2 0x644 JUMPI DUP1 PUSH4 0xDBBE2550 EQ PUSH2 0x657 JUMPI DUP1 PUSH4 0xDCBAD90D EQ PUSH2 0x66A JUMPI PUSH0 DUP1 REVERT JUMPDEST DUP1 PUSH4 0xA5EB64E1 GT PUSH2 0x11B JUMPI DUP1 PUSH4 0xA5EB64E1 EQ PUSH2 0x5AE JUMPI DUP1 PUSH4 0xA76594BF EQ PUSH2 0x5B7 JUMPI DUP1 PUSH4 0xAAF5EB68 EQ PUSH2 0x5BF JUMPI DUP1 PUSH4 0xAC451185 EQ PUSH2 0x5CE JUMPI DUP1 PUSH4 0xB6B55F25 EQ PUSH2 0x5EE JUMPI DUP1 PUSH4 0xBB2EA49A EQ PUSH2 0x601 JUMPI PUSH0 DUP1 REVERT JUMPDEST DUP1 PUSH4 0x90619FA2 EQ PUSH2 0x537 JUMPI DUP1 PUSH4 0x92A52E81 EQ PUSH2 0x54A JUMPI DUP1 PUSH4 0x95DD9A3E EQ PUSH2 0x569 JUMPI DUP1 PUSH4 0x9619367D EQ PUSH2 0x57C JUMPI DUP1 PUSH4 0xA2F77BCC EQ PUSH2 0x585 JUMPI DUP1 PUSH4 0xA3F67D6D EQ PUSH2 0x5A5 JUMPI PUSH0 DUP1 REVERT JUMPDEST DUP1 PUSH4 0x322668A4 GT PUSH2 0x203 JUMPI DUP1 PUSH4 0x773ED91E GT PUSH2 0x1BD JUMPI DUP1 PUSH4 0x773ED91E EQ PUSH2 0x4CF JUMPI DUP1 PUSH4 0x7DB8177B EQ PUSH2 0x4E2 JUMPI DUP1 PUSH4 0x881EFF1E EQ PUSH2 0x4EB JUMPI DUP1 PUSH4 0x8863DD1A EQ PUSH2 0x4FE JUMPI DUP1 PUSH4 0x88EA41B9 EQ PUSH2 0x511 JUMPI DUP1 PUSH4 0x8DA5CB5B EQ PUSH2 0x524 JUMPI PUSH0 DUP1 REVERT JUMPDEST DUP1 PUSH4 0x322668A4 EQ PUSH2 0x422 JUMPI DUP1 PUSH4 0x3C28F9CE EQ PUSH2 0x42B JUMPI DUP1 PUSH4 0x3ED5CF7E EQ PUSH2 0x43E JUMPI DUP1 PUSH4 0x3EF1B181 EQ PUSH2 0x451 JUMPI DUP1 PUSH4 0x472016DA EQ PUSH2 0x464 JUMPI DUP1 PUSH4 0x5D602C00 EQ PUSH2 0x4A4 JUMPI PUSH0 DUP1 REVERT JUMPDEST DUP1 PUSH4 0x1C4B774B GT PUSH2 0x254 JUMPI DUP1 PUSH4 0x1C4B774B EQ PUSH2 0x3B7 JUMPI DUP1 PUSH4 0x1F69565F EQ PUSH2 0x3CA JUMPI DUP1 PUSH4 0x22D4BCBD EQ PUSH2 0x3EA JUMPI DUP1 PUSH4 0x2E1A7D4D EQ PUSH2 0x3F3 JUMPI DUP1 PUSH4 0x2E5B2168 EQ PUSH2 0x406 JUMPI DUP1 PUSH4 0x31CD3E7B EQ PUSH2 0x40F JUMPI PUSH0 DUP1 REVERT JUMPDEST DUP1 PUSH4 0x7964F5E EQ PUSH2 0x29B JUMPI DUP1 PUSH4 0xA5694C2 EQ PUSH2 0x2B0 JUMPI DUP1 PUSH4 0xD2DCE22 EQ PUSH2 0x2D6 JUMPI DUP1 PUSH4 0xF1BF454 EQ PUSH2 0x2F6 JUMPI DUP1 PUSH4 0x117A5B90 EQ PUSH2 0x328 JUMPI DUP1 PUSH4 0x12508EA4 EQ PUSH2 0x3A4 JUMPI JUMPDEST PUSH0 DUP1 REVERT JUMPDEST PUSH2 0x2AE PUSH2 0x2A9 CALLDATASIZE PUSH1 0x4 PUSH2 0x23E8 JUMP JUMPDEST PUSH2 0x772 JUMP JUMPDEST STOP JUMPDEST PUSH2 0x2C3 PUSH2 0x2BE CALLDATASIZE PUSH1 0x4 PUSH2 0x2423 JUMP JUMPDEST PUSH2 0xCB4 JUMP JUMPDEST PUSH1 0x40 MLOAD SWAP1 DUP2 MSTORE PUSH1 0x20 ADD JUMPDEST PUSH1 0x40 MLOAD DUP1 SWAP2 SUB SWAP1 RETURN JUMPDEST PUSH2 0x2E9 PUSH2 0x2E4 CALLDATASIZE PUSH1 0x4 PUSH2 0x23E8 JUMP JUMPDEST PUSH2 0xCDF JUMP JUMPDEST PUSH1 0x40 MLOAD PUSH2 0x2CD SWAP2 SWAP1 PUSH2 0x244B JUMP JUMPDEST PUSH2 0x31B PUSH2 0x304 CALLDATASIZE PUSH1 0x4 PUSH2 0x24ED JUMP JUMPDEST PUSH0 SWAP1 DUP2 MSTORE PUSH1 0xB PUSH1 0x20 MSTORE PUSH1 0x40 SWAP1 KECCAK256 PUSH1 0x8 ADD SLOAD PUSH1 0xFF AND SWAP1 JUMP JUMPDEST PUSH1 0x40 MLOAD PUSH2 0x2CD SWAP2 SWAP1 PUSH2 0x2538 JUMP JUMPDEST PUSH2 0x38F PUSH2 0x336 CALLDATASIZE PUSH1 0x4 PUSH2 0x24ED JUMP JUMPDEST PUSH1 0xB PUSH1 0x20 MSTORE PUSH0 SWAP1 DUP2 MSTORE PUSH1 0x40 SWAP1 KECCAK256 DUP1 SLOAD PUSH1 0x1 DUP3 ADD SLOAD PUSH1 0x2 DUP4 ADD SLOAD PUSH1 0x3 DUP5 ADD SLOAD PUSH1 0x4 DUP6 ADD SLOAD PUSH1 0x5 DUP7 ADD SLOAD PUSH1 0x6 DUP8 ADD SLOAD PUSH1 0x7 DUP9 ADD SLOAD PUSH1 0x8 SWAP1 SWAP9 ADD SLOAD SWAP7 SWAP8 PUSH1 0x1 PUSH1 0x1 PUSH1 0xA0 SHL SUB SWAP1 SWAP7 AND SWAP7 SWAP5 SWAP6 SWAP4 SWAP5 SWAP3 SWAP4 SWAP2 SWAP3 PUSH1 0xFF SWAP2 DUP3 AND SWAP3 SWAP2 AND DUP10 JUMP JUMPDEST PUSH1 0x40 MLOAD PUSH2 0x2CD SWAP10 SWAP9 SWAP8 SWAP7 SWAP6 SWAP5 SWAP4 SWAP3 SWAP2 SWAP1 PUSH2 0x2546 JUMP JUMPDEST PUSH2 0x2AE PUSH2 0x3B2 CALLDATASIZE PUSH1 0x4 PUSH2 0x25B1 JUMP JUMPDEST PUSH2 0xEC0 JUMP JUMPDEST PUSH2 0x2C3 PUSH2 0x3C5 CALLDATASIZE PUSH1 0x4 PUSH2 0x24ED JUMP JUMPDEST PUSH2 0x1311 JUMP JUMPDEST PUSH2 0x3DD PUSH2 0x3D8 CALLDATASIZE PUSH1 0x4 PUSH2 0x25DF JUMP JUMPDEST PUSH2 0x1333 JUMP JUMPDEST PUSH1 0x40 MLOAD PUSH2 0x2CD SWAP2 SWAP1 PUSH2 0x2645 JUMP JUMPDEST PUSH2 0x2C3 PUSH1 0x4 SLOAD DUP2 JUMP JUMPDEST PUSH2 0x2AE PUSH2 0x401 CALLDATASIZE PUSH1 0x4 PUSH2 0x24ED JUMP JUMPDEST PUSH2 0x15B2 JUMP JUMPDEST PUSH2 0x2C3 PUSH1 0x16 SLOAD DUP2 JUMP JUMPDEST PUSH2 0x2AE PUSH2 0x41D CALLDATASIZE PUSH1 0x4 PUSH2 0x24ED JUMP JUMPDEST PUSH2 0x16EE JUMP JUMPDEST PUSH2 0x2C3 PUSH1 0x10 SLOAD DUP2 JUMP JUMPDEST PUSH2 0x2AE PUSH2 0x439 CALLDATASIZE PUSH1 0x4 PUSH2 0x2423 JUMP JUMPDEST PUSH2 0x171D JUMP JUMPDEST PUSH2 0x2AE PUSH2 0x44C CALLDATASIZE PUSH1 0x4 PUSH2 0x24ED JUMP JUMPDEST PUSH2 0x1832 JUMP JUMPDEST PUSH2 0x2AE PUSH2 0x45F CALLDATASIZE PUSH1 0x4 PUSH2 0x26AB JUMP JUMPDEST PUSH2 0x193B JUMP JUMPDEST PUSH2 0x48C PUSH2 0x472 CALLDATASIZE PUSH1 0x4 PUSH2 0x24ED JUMP JUMPDEST PUSH1 0x8 PUSH1 0x20 MSTORE PUSH0 SWAP1 DUP2 MSTORE PUSH1 0x40 SWAP1 KECCAK256 SLOAD PUSH1 0x1 PUSH1 0x1 PUSH1 0xA0 SHL SUB AND DUP2 JUMP JUMPDEST PUSH1 0x40 MLOAD PUSH1 0x1 PUSH1 0x1 PUSH1 0xA0 SHL SUB SWAP1 SWAP2 AND DUP2 MSTORE PUSH1 0x20 ADD PUSH2 0x2CD JUMP JUMPDEST PUSH2 0x2C3 PUSH2 0x4B2 CALLDATASIZE PUSH1 0x4 PUSH2 0x25DF JUMP JUMPDEST PUSH1 0x1 PUSH1 0x1 PUSH1 0xA0 SHL SUB AND PUSH0 SWAP1 DUP2 MSTORE PUSH1 0x7 PUSH1 0x20 MSTORE PUSH1 0x40 SWAP1 KECCAK256 PUSH1 0x1 ADD SLOAD SWAP1 JUMP JUMPDEST PUSH1 0x3 SLOAD PUSH2 0x48C SWAP1 PUSH1 0x1 PUSH1 0x1 PUSH1 0xA0 SHL SUB AND DUP2 JUMP JUMPDEST PUSH2 0x2C3 PUSH1 0xF SLOAD DUP2 JUMP JUMPDEST PUSH2 0x2AE PUSH2 0x4F9 CALLDATASIZE PUSH1 0x4 PUSH2 0x24ED JUMP JUMPDEST PUSH2 0x1992 JUMP JUMPDEST PUSH2 0x2AE PUSH2 0x50C CALLDATASIZE PUSH1 0x4 PUSH2 0x25DF JUMP JUMPDEST PUSH2 0x19C1 JUMP JUMPDEST PUSH2 0x2AE PUSH2 0x51F CALLDATASIZE PUSH1 0x4 PUSH2 0x24ED JUMP JUMPDEST PUSH2 0x1A0D JUMP JUMPDEST PUSH1 0x2 SLOAD PUSH2 0x48C SWAP1 PUSH1 0x1 PUSH1 0x1 PUSH1 0xA0 SHL SUB AND DUP2 JUMP JUMPDEST PUSH2 0x2AE PUSH2 0x545 CALLDATASIZE PUSH1 0x4 PUSH2 0x24ED JUMP JUMPDEST PUSH2 0x1A3C JUMP JUMPDEST PUSH2 0x2C3 PUSH2 0x558 CALLDATASIZE PUSH1 0x4 PUSH2 0x24ED JUMP JUMPDEST PUSH1 0x12 PUSH1 0x20 MSTORE PUSH0 SWAP1 DUP2 MSTORE PUSH1 0x40 SWAP1 KECCAK256 SLOAD DUP2 JUMP JUMPDEST PUSH2 0x2AE PUSH2 0x577 CALLDATASIZE PUSH1 0x4 PUSH2 0x24ED JUMP JUMPDEST PUSH2 0x1B74 JUMP JUMPDEST PUSH2 0x2C3 PUSH1 0x15 SLOAD DUP2 JUMP JUMPDEST PUSH2 0x598 PUSH2 0x593 CALLDATASIZE PUSH1 0x4 PUSH2 0x24ED JUMP JUMPDEST PUSH2 0x1BA3 JUMP JUMPDEST PUSH1 0x40 MLOAD PUSH2 0x2CD SWAP2 SWAP1 PUSH2 0x2742 JUMP JUMPDEST PUSH2 0x2C3 PUSH1 0x9 SLOAD DUP2 JUMP JUMPDEST PUSH2 0x2C3 PUSH1 0x14 SLOAD DUP2 JUMP JUMPDEST PUSH1 0x9 SLOAD PUSH2 0x2C3 JUMP JUMPDEST PUSH2 0x2C3 PUSH8 0xDE0B6B3A7640000 DUP2 JUMP JUMPDEST PUSH2 0x5E1 PUSH2 0x5DC CALLDATASIZE PUSH1 0x4 PUSH2 0x23E8 JUMP JUMPDEST PUSH2 0x1C5F JUMP JUMPDEST PUSH1 0x40 MLOAD PUSH2 0x2CD SWAP2 SWAP1 PUSH2 0x2751 JUMP JUMPDEST PUSH2 0x2AE PUSH2 0x5FC CALLDATASIZE PUSH1 0x4 PUSH2 0x24ED JUMP JUMPDEST PUSH2 0x1DFB JUMP JUMPDEST PUSH2 0x2C3 PUSH2 0x60F CALLDATASIZE PUSH1 0x4 PUSH2 0x25DF JUMP JUMPDEST PUSH1 0x1 PUSH1 0x1 PUSH1 0xA0 SHL SUB AND PUSH0 SWAP1 DUP2 MSTORE PUSH1 0x11 PUSH1 0x20 MSTORE PUSH1 0x40 SWAP1 KECCAK256 SLOAD SWAP1 JUMP JUMPDEST PUSH2 0x2C3 PUSH1 0x13 SLOAD DUP2 JUMP JUMPDEST PUSH2 0x2C3 PUSH1 0x1 SLOAD DUP2 JUMP JUMPDEST PUSH2 0x2C3 PUSH1 0xE SLOAD DUP2 JUMP JUMPDEST PUSH2 0x2AE PUSH2 0x652 CALLDATASIZE PUSH1 0x4 PUSH2 0x24ED JUMP JUMPDEST PUSH2 0x1FB6 JUMP JUMPDEST PUSH2 0x2AE PUSH2 0x665 CALLDATASIZE PUSH1 0x4 PUSH2 0x25DF JUMP JUMPDEST PUSH2 0x20C0 JUMP JUMPDEST PUSH1 0x6 SLOAD PUSH2 0x48C SWAP1 PUSH1 0x1 PUSH1 0x1 PUSH1 0xA0 SHL SUB AND DUP2 JUMP JUMPDEST PUSH2 0x2C3 PUSH1 0xA SLOAD DUP2 JUMP JUMPDEST PUSH2 0x6EA PUSH2 0x694 CALLDATASIZE PUSH1 0x4 PUSH2 0x25DF JUMP JUMPDEST PUSH1 0x7 PUSH1 0x20 DUP2 SWAP1 MSTORE PUSH0 SWAP2 DUP3 MSTORE PUSH1 0x40 SWAP1 SWAP2 KECCAK256 DUP1 SLOAD PUSH1 0x1 DUP3 ADD SLOAD PUSH1 0x2 DUP4 ADD SLOAD PUSH1 0x3 DUP5 ADD SLOAD PUSH1 0x4 DUP6 ADD SLOAD PUSH1 0x5 DUP7 ADD SLOAD PUSH1 0x6 DUP8 ADD SLOAD SWAP8 DUP8 ADD SLOAD PUSH1 0x8 SWAP1 SWAP8 ADD SLOAD PUSH1 0x1 PUSH1 0x1 PUSH1 0xA0 SHL SUB SWAP1 SWAP7 AND SWAP8 SWAP5 SWAP7 SWAP4 SWAP6 SWAP3 SWAP5 SWAP2 SWAP4 SWAP1 SWAP3 PUSH1 0xFF AND DUP10 JUMP JUMPDEST PUSH1 0x40 DUP1 MLOAD PUSH1 0x1 PUSH1 0x1 PUSH1 0xA0 SHL SUB SWAP1 SWAP11 AND DUP11 MSTORE PUSH1 0x20 DUP11 ADD SWAP9 SWAP1 SWAP9 MSTORE SWAP7 DUP9 ADD SWAP6 SWAP1 SWAP6 MSTORE PUSH1 0x60 DUP8 ADD SWAP4 SWAP1 SWAP4 MSTORE PUSH1 0x80 DUP7 ADD SWAP2 SWAP1 SWAP2 MSTORE PUSH1 0xA0 DUP6 ADD MSTORE PUSH1 0xC0 DUP5 ADD MSTORE PUSH1 0xE0 DUP4 ADD MSTORE ISZERO ISZERO PUSH2 0x100 DUP3 ADD MSTORE PUSH2 0x120 ADD PUSH2 0x2CD JUMP JUMPDEST PUSH2 0x5E1 PUSH2 0x748 CALLDATASIZE PUSH1 0x4 PUSH2 0x279F JUMP JUMPDEST PUSH2 0x210C JUMP JUMPDEST PUSH2 0x2C3 PUSH1 0xD SLOAD DUP2 JUMP JUMPDEST PUSH2 0x2C3 PUSH1 0xC SLOAD DUP2 JUMP JUMPDEST PUSH1 0x5 SLOAD PUSH2 0x48C SWAP1 PUSH1 0x1 PUSH1 0x1 PUSH1 0xA0 SHL SUB AND DUP2 JUMP JUMPDEST PUSH1 0x6 SLOAD PUSH1 0x1 PUSH1 0x1 PUSH1 0xA0 SHL SUB AND CALLER EQ PUSH2 0x7DD JUMPI PUSH1 0x40 MLOAD PUSH3 0x461BCD PUSH1 0xE5 SHL DUP2 MSTORE PUSH1 0x20 PUSH1 0x4 DUP3 ADD MSTORE PUSH1 0x23 PUSH1 0x24 DUP3 ADD MSTORE PUSH32 0x4F6E6C792072616E646F6D2067656E657261746F722063616E2063616C6C2074 PUSH1 0x44 DUP3 ADD MSTORE PUSH3 0x686973 PUSH1 0xE8 SHL PUSH1 0x64 DUP3 ADD MSTORE PUSH1 0x84 ADD JUMPDEST PUSH1 0x40 MLOAD DUP1 SWAP2 SUB SWAP1 REVERT JUMPDEST PUSH0 DUP3 DUP2 MSTORE PUSH1 0x12 PUSH1 0x20 SWAP1 DUP2 MSTORE PUSH1 0x40 DUP1 DUP4 KECCAK256 SLOAD DUP4 MSTORE PUSH1 0xB SWAP1 SWAP2 MSTORE DUP2 KECCAK256 SWAP1 PUSH1 0x8 DUP3 ADD SLOAD PUSH1 0xFF AND PUSH1 0x2 DUP2 GT ISZERO PUSH2 0x811 JUMPI PUSH2 0x811 PUSH2 0x2504 JUMP JUMPDEST EQ PUSH2 0x851 JUMPI PUSH1 0x40 MLOAD PUSH3 0x461BCD PUSH1 0xE5 SHL DUP2 MSTORE PUSH1 0x20 PUSH1 0x4 DUP3 ADD MSTORE PUSH1 0x10 PUSH1 0x24 DUP3 ADD MSTORE PUSH16 0x47616D65206E6F742070656E64696E67 PUSH1 0x80 SHL PUSH1 0x44 DUP3 ADD MSTORE PUSH1 0x64 ADD PUSH2 0x7D4 JUMP JUMPDEST DUP3 DUP2 PUSH1 0x5 ADD SLOAD EQ PUSH2 0x89A JUMPI PUSH1 0x40 MLOAD PUSH3 0x461BCD PUSH1 0xE5 SHL DUP2 MSTORE PUSH1 0x20 PUSH1 0x4 DUP3 ADD MSTORE PUSH1 0x13 PUSH1 0x24 DUP3 ADD MSTORE PUSH19 0x111A5CDB585D18DA081C995C5D595CDD081A59 PUSH1 0x6A SHL PUSH1 0x44 DUP3 ADD MSTORE PUSH1 0x64 ADD PUSH2 0x7D4 JUMP JUMPDEST PUSH1 0x4 DUP2 ADD SLOAD ISZERO PUSH2 0x8DD JUMPI PUSH1 0x40 MLOAD PUSH3 0x461BCD PUSH1 0xE5 SHL DUP2 MSTORE PUSH1 0x20 PUSH1 0x4 DUP3 ADD MSTORE PUSH1 0xE PUSH1 0x24 DUP3 ADD MSTORE PUSH14 0x105B1C9958591E48199A5B1B1959 PUSH1 0x92 SHL PUSH1 0x44 DUP3 ADD MSTORE PUSH1 0x64 ADD PUSH2 0x7D4 JUMP JUMPDEST PUSH1 0x4 DUP2 ADD DUP3 SWAP1 SSTORE PUSH1 0x40 DUP1 MLOAD PUSH1 0x20 DUP1 DUP3 ADD DUP6 SWAP1 MSTORE DUP2 DUP4 ADD DUP7 SWAP1 MSTORE DUP3 MLOAD DUP1 DUP4 SUB DUP5 ADD DUP2 MSTORE PUSH1 0x60 SWAP1 SWAP3 ADD SWAP1 SWAP3 MSTORE DUP1 MLOAD SWAP2 ADD KECCAK256 PUSH0 SWAP1 PUSH2 0x91A SWAP1 PUSH1 0x2 SWAP1 PUSH2 0x27E3 JUMP JUMPDEST PUSH1 0x6 DUP4 ADD SLOAD PUSH1 0x1 DUP5 ADD SLOAD PUSH1 0x1 PUSH1 0x1 PUSH1 0xA0 SHL SUB AND PUSH0 SWAP1 DUP2 MSTORE PUSH1 0x7 PUSH1 0x20 MSTORE PUSH1 0x40 SWAP1 KECCAK256 SWAP2 ISZERO SWAP3 POP PUSH1 0xFF AND ISZERO ISZERO DUP3 EQ SWAP1 DUP2 ISZERO PUSH2 0xAC6 JUMPI PUSH0 PUSH8 0xDE0B6B3A7640000 PUSH1 0x1 SLOAD DUP7 PUSH1 0x2 ADD SLOAD PUSH2 0x968 SWAP2 SWAP1 PUSH2 0x280A JUMP JUMPDEST PUSH2 0x972 SWAP2 SWAP1 PUSH2 0x2821 JUMP JUMPDEST SWAP1 POP DUP1 DUP3 PUSH1 0x1 ADD SLOAD PUSH2 0x984 SWAP2 SWAP1 PUSH2 0x2834 JUMP JUMPDEST PUSH1 0x1 DUP4 ADD SSTORE PUSH1 0x3 DUP3 ADD SLOAD PUSH2 0x999 SWAP1 DUP3 SWAP1 PUSH2 0x2834 JUMP JUMPDEST PUSH1 0x3 DUP4 ADD SSTORE PUSH1 0x5 DUP3 ADD DUP1 SLOAD SWAP1 PUSH0 PUSH2 0x9AF DUP4 PUSH2 0x2847 JUMP JUMPDEST SWAP2 SWAP1 POP SSTORE POP DUP1 PUSH1 0xF SLOAD PUSH2 0x9C2 SWAP2 SWAP1 PUSH2 0x2834 JUMP JUMPDEST PUSH1 0xF SSTORE PUSH1 0xA SLOAD PUSH2 0x9D3 SWAP1 DUP3 SWAP1 PUSH2 0x2834 JUMP JUMPDEST PUSH1 0xA SSTORE PUSH1 0xD DUP1 SLOAD SWAP1 PUSH0 PUSH2 0x9E5 DUP4 PUSH2 0x2847 JUMP JUMPDEST SWAP1 SWAP2 SSTORE POP POP PUSH1 0x2 DUP6 ADD SLOAD PUSH2 0x9F9 SWAP1 DUP3 PUSH2 0x285F JUMP JUMPDEST PUSH1 0x13 SLOAD LT PUSH2 0xA25 JUMPI PUSH1 0x2 DUP6 ADD SLOAD PUSH2 0xA10 SWAP1 DUP3 PUSH2 0x285F JUMP JUMPDEST PUSH1 0x13 SLOAD PUSH2 0xA1D SWAP2 SWAP1 PUSH2 0x285F JUMP JUMPDEST PUSH1 0x13 SSTORE PUSH2 0xA37 JUMP JUMPDEST DUP1 PUSH1 0x14 SLOAD PUSH2 0xA33 SWAP2 SWAP1 PUSH2 0x2834 JUMP JUMPDEST PUSH1 0x14 SSTORE JUMPDEST PUSH1 0x3 DUP6 ADD DUP2 SWAP1 SSTORE PUSH1 0x8 DUP6 ADD DUP1 SLOAD PUSH1 0xFF NOT AND PUSH1 0x1 SWAP1 DUP2 OR SWAP1 SWAP2 SSTORE DUP1 DUP7 ADD SLOAD PUSH0 DUP10 DUP2 MSTORE PUSH1 0x12 PUSH1 0x20 SWAP1 DUP2 MSTORE PUSH1 0x40 SWAP2 DUP3 SWAP1 KECCAK256 SLOAD PUSH1 0x2 DUP11 ADD SLOAD DUP4 MLOAD SWAP2 DUP3 MSTORE SWAP2 DUP2 ADD DUP13 SWAP1 MSTORE SWAP2 DUP3 ADD MSTORE PUSH1 0x60 DUP2 ADD SWAP3 SWAP1 SWAP3 MSTORE PUSH1 0x80 DUP3 ADD DUP4 SWAP1 MSTORE PUSH1 0x1 PUSH1 0x1 PUSH1 0xA0 SHL SUB AND SWAP1 PUSH32 0xB24F937F714621DAF91D607090897A51E3912600D42206A0CA82BDF05069AD0 SWAP1 PUSH1 0xA0 ADD PUSH1 0x40 MLOAD DUP1 SWAP2 SUB SWAP1 LOG2 POP PUSH2 0xCAC JUMP JUMPDEST DUP4 PUSH1 0x2 ADD SLOAD DUP2 PUSH1 0x4 ADD SLOAD PUSH2 0xADA SWAP2 SWAP1 PUSH2 0x2834 JUMP JUMPDEST PUSH1 0x4 DUP3 ADD SSTORE PUSH1 0x6 DUP2 ADD DUP1 SLOAD SWAP1 PUSH0 PUSH2 0xAF0 DUP4 PUSH2 0x2847 JUMP JUMPDEST SWAP2 SWAP1 POP SSTORE POP DUP4 PUSH1 0x2 ADD SLOAD PUSH1 0x10 SLOAD PUSH2 0xB07 SWAP2 SWAP1 PUSH2 0x2834 JUMP JUMPDEST PUSH1 0x10 SSTORE PUSH1 0xE DUP1 SLOAD SWAP1 PUSH0 PUSH2 0xB19 DUP4 PUSH2 0x2847 JUMP JUMPDEST SWAP2 SWAP1 POP SSTORE POP PUSH0 PUSH2 0x2710 PUSH1 0x4 SLOAD PUSH2 0x2710 PUSH2 0xB32 SWAP2 SWAP1 PUSH2 0x285F JUMP JUMPDEST DUP7 PUSH1 0x2 ADD SLOAD PUSH2 0xB41 SWAP2 SWAP1 PUSH2 0x280A JUMP JUMPDEST PUSH2 0xB4B SWAP2 SWAP1 PUSH2 0x2821 JUMP JUMPDEST SWAP1 POP PUSH0 PUSH2 0x2710 PUSH1 0x4 SLOAD DUP8 PUSH1 0x2 ADD SLOAD PUSH2 0xB63 SWAP2 SWAP1 PUSH2 0x280A JUMP JUMPDEST PUSH2 0xB6D SWAP2 SWAP1 PUSH2 0x2821 JUMP JUMPDEST SWAP1 POP DUP2 PUSH1 0x13 SLOAD PUSH2 0xB7D SWAP2 SWAP1 PUSH2 0x2834 JUMP JUMPDEST PUSH1 0x13 SSTORE PUSH1 0x8 DUP7 ADD DUP1 SLOAD PUSH1 0xFF NOT AND PUSH1 0x2 OR SWAP1 SSTORE DUP1 ISZERO PUSH2 0xC34 JUMPI PUSH1 0x3 SLOAD PUSH1 0x1 PUSH1 0x1 PUSH1 0xA0 SHL SUB AND ISZERO PUSH2 0xC22 JUMPI PUSH1 0x5 SLOAD PUSH1 0x3 SLOAD PUSH1 0x40 MLOAD PUSH4 0xA9059CBB PUSH1 0xE0 SHL DUP2 MSTORE PUSH1 0x1 PUSH1 0x1 PUSH1 0xA0 SHL SUB SWAP2 DUP3 AND PUSH1 0x4 DUP3 ADD MSTORE PUSH1 0x24 DUP2 ADD DUP5 SWAP1 MSTORE SWAP2 AND SWAP1 PUSH4 0xA9059CBB SWAP1 PUSH1 0x44 ADD PUSH1 0x20 PUSH1 0x40 MLOAD DUP1 DUP4 SUB DUP2 PUSH0 DUP8 GAS CALL ISZERO DUP1 ISZERO PUSH2 0xBF8 JUMPI RETURNDATASIZE PUSH0 DUP1 RETURNDATACOPY RETURNDATASIZE PUSH0 REVERT JUMPDEST POP POP POP POP PUSH1 0x40 MLOAD RETURNDATASIZE PUSH1 0x1F NOT PUSH1 0x1F DUP3 ADD AND DUP3 ADD DUP1 PUSH1 0x40 MSTORE POP DUP2 ADD SWAP1 PUSH2 0xC1C SWAP2 SWAP1 PUSH2 0x2872 JUMP JUMPDEST POP PUSH2 0xC34 JUMP JUMPDEST DUP1 PUSH1 0x13 SLOAD PUSH2 0xC30 SWAP2 SWAP1 PUSH2 0x2834 JUMP JUMPDEST PUSH1 0x13 SSTORE JUMPDEST PUSH1 0x1 DUP7 ADD SLOAD PUSH0 DUP10 DUP2 MSTORE PUSH1 0x12 PUSH1 0x20 SWAP1 DUP2 MSTORE PUSH1 0x40 DUP1 DUP4 KECCAK256 SLOAD PUSH1 0x2 DUP12 ADD SLOAD DUP3 MLOAD SWAP2 DUP3 MSTORE SWAP3 DUP2 ADD DUP14 SWAP1 MSTORE SWAP1 DUP2 ADD SWAP2 SWAP1 SWAP2 MSTORE PUSH1 0x60 DUP2 ADD DUP3 SWAP1 MSTORE PUSH1 0x80 DUP2 ADD SWAP2 SWAP1 SWAP2 MSTORE PUSH1 0x1 PUSH1 0x1 PUSH1 0xA0 SHL SUB SWAP1 SWAP2 AND SWAP1 PUSH32 0xB24F937F714621DAF91D607090897A51E3912600D42206A0CA82BDF05069AD0 SWAP1 PUSH1 0xA0 ADD PUSH1 0x40 MLOAD DUP1 SWAP2 SUB SWAP1 LOG2 POP POP JUMPDEST POP POP POP POP POP POP JUMP JUMPDEST PUSH1 0x11 PUSH1 0x20 MSTORE DUP2 PUSH0 MSTORE PUSH1 0x40 PUSH0 KECCAK256 DUP2 DUP2 SLOAD DUP2 LT PUSH2 0xCCD JUMPI PUSH0 DUP1 REVERT JUMPDEST SWAP1 PUSH0 MSTORE PUSH1 0x20 PUSH0 KECCAK256 ADD PUSH0 SWAP2 POP SWAP2 POP POP SLOAD DUP2 JUMP JUMPDEST PUSH1 0x60 DUP2 PUSH0 SUB PUSH2 0xCEE JUMPI PUSH1 0x9 SLOAD SWAP2 POP JUMPDEST PUSH1 0x9 SLOAD DUP4 GT PUSH2 0xEBA JUMPI PUSH0 PUSH2 0xD02 DUP4 DUP6 PUSH2 0x2834 JUMP JUMPDEST SWAP1 POP PUSH1 0x9 SLOAD DUP2 GT ISZERO PUSH2 0xD13 JUMPI POP PUSH1 0x9 SLOAD JUMPDEST PUSH2 0xD1D DUP5 DUP3 PUSH2 0x285F JUMP JUMPDEST PUSH8 0xFFFFFFFFFFFFFFFF DUP2 GT ISZERO PUSH2 0xD35 JUMPI PUSH2 0xD35 PUSH2 0x288D JUMP JUMPDEST PUSH1 0x40 MLOAD SWAP1 DUP1 DUP3 MSTORE DUP1 PUSH1 0x20 MUL PUSH1 0x20 ADD DUP3 ADD PUSH1 0x40 MSTORE DUP1 ISZERO PUSH2 0xDB7 JUMPI DUP2 PUSH1 0x20 ADD JUMPDEST PUSH2 0xDA4 PUSH1 0x40 MLOAD DUP1 PUSH2 0x120 ADD PUSH1 0x40 MSTORE DUP1 PUSH0 PUSH1 0x1 PUSH1 0x1 PUSH1 0xA0 SHL SUB AND DUP2 MSTORE PUSH1 0x20 ADD PUSH0 DUP2 MSTORE PUSH1 0x20 ADD PUSH0 DUP2 MSTORE PUSH1 0x20 ADD PUSH0 DUP2 MSTORE PUSH1 0x20 ADD PUSH0 DUP2 MSTORE PUSH1 0x20 ADD PUSH0 DUP2 MSTORE PUSH1 0x20 ADD PUSH0 DUP2 MSTORE PUSH1 0x20 ADD PUSH0 DUP2 MSTORE PUSH1 0x20 ADD PUSH0 ISZERO ISZERO DUP2 MSTORE POP SWAP1 JUMP JUMPDEST DUP2 MSTORE PUSH1 0x20 ADD SWAP1 PUSH1 0x1 SWAP1 SUB SWAP1 DUP2 PUSH2 0xD53 JUMPI SWAP1 POP JUMPDEST POP SWAP2 POP PUSH0 JUMPDEST PUSH2 0xDC6 DUP6 DUP4 PUSH2 0x285F JUMP JUMPDEST DUP2 LT ISZERO PUSH2 0xEB7 JUMPI PUSH1 0x7 PUSH0 PUSH1 0x8 PUSH0 PUSH1 0x1 DUP10 DUP7 PUSH1 0x9 SLOAD PUSH2 0xDE4 SWAP2 SWAP1 PUSH2 0x285F JUMP JUMPDEST PUSH2 0xDEE SWAP2 SWAP1 PUSH2 0x285F JUMP JUMPDEST PUSH2 0xDF8 SWAP2 SWAP1 PUSH2 0x285F JUMP JUMPDEST DUP2 MSTORE PUSH1 0x20 DUP1 DUP3 ADD SWAP3 SWAP1 SWAP3 MSTORE PUSH1 0x40 SWAP1 DUP2 ADD PUSH0 SWAP1 DUP2 KECCAK256 SLOAD PUSH1 0x1 PUSH1 0x1 PUSH1 0xA0 SHL SUB SWAP1 DUP2 AND DUP6 MSTORE DUP5 DUP5 ADD SWAP6 SWAP1 SWAP6 MSTORE SWAP3 DUP2 ADD SWAP1 SWAP3 KECCAK256 DUP3 MLOAD PUSH2 0x120 DUP2 ADD DUP5 MSTORE DUP2 SLOAD SWAP1 SWAP5 AND DUP5 MSTORE PUSH1 0x1 DUP2 ADD SLOAD SWAP2 DUP5 ADD SWAP2 SWAP1 SWAP2 MSTORE PUSH1 0x2 DUP2 ADD SLOAD SWAP2 DUP4 ADD SWAP2 SWAP1 SWAP2 MSTORE PUSH1 0x3 DUP2 ADD SLOAD PUSH1 0x60 DUP4 ADD MSTORE PUSH1 0x4 DUP2 ADD SLOAD PUSH1 0x80 DUP4 ADD MSTORE PUSH1 0x5 DUP2 ADD SLOAD PUSH1 0xA0 DUP4 ADD MSTORE PUSH1 0x6 DUP2 ADD SLOAD PUSH1 0xC0 DUP4 ADD MSTORE PUSH1 0x7 DUP2 ADD SLOAD PUSH1 0xE0 DUP4 ADD MSTORE PUSH1 0x8 ADD SLOAD PUSH1 0xFF AND ISZERO ISZERO PUSH2 0x100 DUP3 ADD MSTORE DUP4 MLOAD DUP5 SWAP1 DUP4 SWAP1 DUP2 LT PUSH2 0xEA4 JUMPI PUSH2 0xEA4 PUSH2 0x28A1 JUMP JUMPDEST PUSH1 0x20 SWAP1 DUP2 MUL SWAP2 SWAP1 SWAP2 ADD ADD MSTORE PUSH1 0x1 ADD PUSH2 0xDBC JUMP JUMPDEST POP POP JUMPDEST SWAP3 SWAP2 POP POP JUMP JUMPDEST PUSH2 0xEC8 PUSH2 0x2348 JUMP JUMPDEST CALLER PUSH0 SWAP1 DUP2 MSTORE PUSH1 0x7 PUSH1 0x20 MSTORE PUSH1 0x40 SWAP1 KECCAK256 PUSH1 0x15 SLOAD DUP4 LT ISZERO PUSH2 0xF15 JUMPI PUSH1 0x40 MLOAD PUSH3 0x461BCD PUSH1 0xE5 SHL DUP2 MSTORE PUSH1 0x20 PUSH1 0x4 DUP3 ADD MSTORE PUSH1 0xA PUSH1 0x24 DUP3 ADD MSTORE PUSH10 0x42657420746F206C6F77 PUSH1 0xB0 SHL PUSH1 0x44 DUP3 ADD MSTORE PUSH1 0x64 ADD PUSH2 0x7D4 JUMP JUMPDEST PUSH1 0x16 SLOAD DUP4 GT ISZERO PUSH2 0xF56 JUMPI PUSH1 0x40 MLOAD PUSH3 0x461BCD PUSH1 0xE5 SHL DUP2 MSTORE PUSH1 0x20 PUSH1 0x4 DUP3 ADD MSTORE PUSH1 0xC PUSH1 0x24 DUP3 ADD MSTORE PUSH12 0x10995D081D1BC81A1A59DA1D PUSH1 0xA2 SHL PUSH1 0x44 DUP3 ADD MSTORE PUSH1 0x64 ADD PUSH2 0x7D4 JUMP JUMPDEST DUP3 DUP2 PUSH1 0x1 ADD SLOAD LT ISZERO PUSH2 0xF9F JUMPI PUSH1 0x40 MLOAD PUSH3 0x461BCD PUSH1 0xE5 SHL DUP2 MSTORE PUSH1 0x20 PUSH1 0x4 DUP3 ADD MSTORE PUSH1 0x12 PUSH1 0x24 DUP3 ADD MSTORE PUSH18 0x139BDD08195B9BDD59DA0819195C1BDCDA5D PUSH1 0x72 SHL PUSH1 0x44 DUP3 ADD MSTORE PUSH1 0x64 ADD PUSH2 0x7D4 JUMP JUMPDEST PUSH1 0x8 DUP2 ADD SLOAD PUSH1 0xFF AND ISZERO PUSH2 0xFEA JUMPI PUSH1 0x40 MLOAD PUSH3 0x461BCD PUSH1 0xE5 SHL DUP2 MSTORE PUSH1 0x20 PUSH1 0x4 DUP3 ADD MSTORE PUSH1 0x13 PUSH1 0x24 DUP3 ADD MSTORE PUSH19 0x4E6F7420616C6C6F77656420666F7220796F75 PUSH1 0x68 SHL PUSH1 0x44 DUP3 ADD MSTORE PUSH1 0x64 ADD PUSH2 0x7D4 JUMP JUMPDEST PUSH0 PUSH8 0xDE0B6B3A7640000 PUSH1 0x1 SLOAD DUP6 PUSH2 0x1002 SWAP2 SWAP1 PUSH2 0x280A JUMP JUMPDEST PUSH2 0x100C SWAP2 SWAP1 PUSH2 0x2821 JUMP JUMPDEST SWAP1 POP DUP1 PUSH1 0x13 SLOAD GT PUSH2 0x1052 JUMPI PUSH1 0x40 MLOAD PUSH3 0x461BCD PUSH1 0xE5 SHL DUP2 MSTORE PUSH1 0x20 PUSH1 0x4 DUP3 ADD MSTORE PUSH1 0x10 PUSH1 0x24 DUP3 ADD MSTORE PUSH16 0x4E6F20636F696E7320696E2062616E6B PUSH1 0x80 SHL PUSH1 0x44 DUP3 ADD MSTORE PUSH1 0x64 ADD PUSH2 0x7D4 JUMP JUMPDEST PUSH1 0xC DUP1 SLOAD SWAP1 PUSH0 PUSH2 0x1061 DUP4 PUSH2 0x2847 JUMP JUMPDEST SWAP1 SWAP2 SSTORE POP POP DUP2 SLOAD PUSH1 0x1 PUSH1 0x1 PUSH1 0xA0 SHL SUB AND CALLER EQ PUSH2 0x10B9 JUMPI DUP2 SLOAD CALLER PUSH1 0x1 PUSH1 0x1 PUSH1 0xA0 SHL SUB NOT SWAP2 DUP3 AND DUP2 OR DUP5 SSTORE PUSH1 0x9 DUP1 SLOAD PUSH0 SWAP1 DUP2 MSTORE PUSH1 0x8 PUSH1 0x20 MSTORE PUSH1 0x40 DUP2 KECCAK256 DUP1 SLOAD SWAP1 SWAP5 AND SWAP1 SWAP3 OR SWAP1 SWAP3 SSTORE DUP2 SLOAD SWAP2 SWAP1 PUSH2 0x10B3 DUP4 PUSH2 0x2847 JUMP JUMPDEST SWAP2 SWAP1 POP SSTORE POP JUMPDEST DUP4 DUP3 PUSH1 0x1 ADD SLOAD PUSH2 0x10C9 SWAP2 SWAP1 PUSH2 0x285F JUMP JUMPDEST PUSH1 0x1 DUP4 ADD SSTORE PUSH1 0x2 DUP3 ADD SLOAD PUSH2 0x10DE SWAP1 DUP6 SWAP1 PUSH2 0x2834 JUMP JUMPDEST PUSH1 0x2 DUP4 ADD SSTORE TIMESTAMP PUSH1 0x7 DUP4 ADD SSTORE PUSH1 0xA SLOAD PUSH2 0x10F7 SWAP1 DUP6 SWAP1 PUSH2 0x285F JUMP JUMPDEST PUSH1 0xA SSTORE PUSH1 0x6 SLOAD PUSH1 0x40 DUP1 MLOAD PUSH4 0xDA9F755 PUSH1 0xE4 SHL DUP2 MSTORE SWAP1 MLOAD PUSH0 SWAP3 PUSH1 0x1 PUSH1 0x1 PUSH1 0xA0 SHL SUB AND SWAP2 PUSH4 0xDA9F7550 SWAP2 PUSH1 0x4 DUP1 DUP4 ADD SWAP3 PUSH1 0x20 SWAP3 SWAP2 SWAP1 DUP3 SWAP1 SUB ADD DUP2 DUP8 DUP8 GAS CALL ISZERO DUP1 ISZERO PUSH2 0x1142 JUMPI RETURNDATASIZE PUSH0 DUP1 RETURNDATACOPY RETURNDATASIZE PUSH0 REVERT JUMPDEST POP POP POP POP PUSH1 0x40 MLOAD RETURNDATASIZE PUSH1 0x1F NOT PUSH1 0x1F DUP3 ADD AND DUP3 ADD DUP1 PUSH1 0x40 MSTORE POP DUP2 ADD SWAP1 PUSH2 0x1166 SWAP2 SWAP1 PUSH2 0x28B5 JUMP JUMPDEST SWAP1 POP PUSH1 0x40 MLOAD DUP1 PUSH2 0x120 ADD PUSH1 0x40 MSTORE DUP1 PUSH1 0xC SLOAD DUP2 MSTORE PUSH1 0x20 ADD CALLER PUSH1 0x1 PUSH1 0x1 PUSH1 0xA0 SHL SUB AND DUP2 MSTORE PUSH1 0x20 ADD DUP7 DUP2 MSTORE PUSH1 0x20 ADD PUSH0 DUP2 MSTORE PUSH1 0x20 ADD PUSH0 DUP1 SHL DUP2 MSTORE PUSH1 0x20 ADD DUP3 DUP2 MSTORE PUSH1 0x20 ADD DUP6 ISZERO ISZERO DUP2 MSTORE PUSH1 0x20 ADD TIMESTAMP DUP2 MSTORE PUSH1 0x20 ADD PUSH0 PUSH1 0x2 DUP2 GT ISZERO PUSH2 0x11C5 JUMPI PUSH2 0x11C5 PUSH2 0x2504 JUMP JUMPDEST SWAP1 MSTORE PUSH1 0xC SLOAD PUSH0 SWAP1 DUP2 MSTORE PUSH1 0xB PUSH1 0x20 SWAP1 DUP2 MSTORE PUSH1 0x40 SWAP2 DUP3 SWAP1 KECCAK256 DUP4 MLOAD DUP2 SSTORE SWAP1 DUP4 ADD MLOAD PUSH1 0x1 DUP1 DUP4 ADD DUP1 SLOAD PUSH1 0x1 PUSH1 0x1 PUSH1 0xA0 SHL SUB SWAP1 SWAP4 AND PUSH1 0x1 PUSH1 0x1 PUSH1 0xA0 SHL SUB NOT SWAP1 SWAP4 AND SWAP3 SWAP1 SWAP3 OR SWAP1 SWAP2 SSTORE SWAP2 DUP4 ADD MLOAD PUSH1 0x2 DUP1 DUP4 ADD SWAP2 SWAP1 SWAP2 SSTORE PUSH1 0x60 DUP5 ADD MLOAD PUSH1 0x3 DUP4 ADD SSTORE PUSH1 0x80 DUP5 ADD MLOAD PUSH1 0x4 DUP4 ADD SSTORE PUSH1 0xA0 DUP5 ADD MLOAD PUSH1 0x5 DUP4 ADD SSTORE PUSH1 0xC0 DUP5 ADD MLOAD PUSH1 0x6 DUP4 ADD DUP1 SLOAD SWAP2 ISZERO ISZERO PUSH1 0xFF NOT SWAP3 DUP4 AND OR SWAP1 SSTORE PUSH1 0xE0 DUP6 ADD MLOAD PUSH1 0x7 DUP5 ADD SSTORE PUSH2 0x100 DUP6 ADD MLOAD PUSH1 0x8 DUP5 ADD DUP1 SLOAD SWAP5 SWAP6 SWAP2 SWAP5 SWAP1 SWAP4 SWAP3 AND SWAP2 DUP5 SWAP1 DUP2 GT ISZERO PUSH2 0x127A JUMPI PUSH2 0x127A PUSH2 0x2504 JUMP JUMPDEST MUL OR SWAP1 SSTORE POP POP CALLER PUSH0 DUP2 DUP2 MSTORE PUSH1 0x11 PUSH1 0x20 SWAP1 DUP2 MSTORE PUSH1 0x40 DUP1 DUP4 KECCAK256 PUSH1 0xC DUP1 SLOAD DUP3 SLOAD PUSH1 0x1 DUP2 ADD DUP5 SSTORE SWAP3 DUP7 MSTORE DUP5 DUP7 KECCAK256 SWAP1 SWAP3 ADD SWAP2 SWAP1 SWAP2 SSTORE SLOAD DUP7 DUP5 MSTORE PUSH1 0x12 DUP4 MSTORE SWAP3 DUP2 SWAP1 KECCAK256 DUP4 SWAP1 SSTORE DUP1 MLOAD SWAP3 DUP4 MSTORE SWAP1 DUP3 ADD DUP6 SWAP1 MSTORE DUP2 ADD DUP9 SWAP1 MSTORE DUP7 ISZERO ISZERO PUSH1 0x60 DUP3 ADD MSTORE SWAP1 SWAP2 POP PUSH32 0x789D99806FB4E85950098066778CE84872C9534FCFB0CDDBDAAF208D6A969231 SWAP1 PUSH1 0x80 ADD PUSH1 0x40 MLOAD DUP1 SWAP2 SUB SWAP1 LOG2 POP POP POP PUSH2 0x130D PUSH1 0x1 PUSH0 SSTORE JUMP JUMPDEST POP POP JUMP JUMPDEST PUSH0 PUSH8 0xDE0B6B3A7640000 PUSH1 0x1 SLOAD DUP4 PUSH2 0x1329 SWAP2 SWAP1 PUSH2 0x280A JUMP JUMPDEST PUSH2 0xEBA SWAP2 SWAP1 PUSH2 0x2821 JUMP JUMPDEST PUSH2 0x1365 PUSH1 0x40 MLOAD DUP1 PUSH1 0xA0 ADD PUSH1 0x40 MSTORE DUP1 PUSH1 0x60 DUP2 MSTORE PUSH1 0x20 ADD PUSH1 0x60 DUP2 MSTORE PUSH1 0x20 ADD PUSH0 PUSH1 0xFF AND DUP2 MSTORE PUSH1 0x20 ADD PUSH0 DUP2 MSTORE PUSH1 0x20 ADD PUSH0 DUP2 MSTORE POP SWAP1 JUMP JUMPDEST PUSH1 0x5 PUSH0 SWAP1 SLOAD SWAP1 PUSH2 0x100 EXP SWAP1 DIV PUSH1 0x1 PUSH1 0x1 PUSH1 0xA0 SHL SUB AND PUSH1 0x1 PUSH1 0x1 PUSH1 0xA0 SHL SUB AND PUSH4 0x95D89B41 PUSH1 0x40 MLOAD DUP2 PUSH4 0xFFFFFFFF AND PUSH1 0xE0 SHL DUP2 MSTORE PUSH1 0x4 ADD PUSH0 PUSH1 0x40 MLOAD DUP1 DUP4 SUB DUP2 DUP7 GAS STATICCALL ISZERO DUP1 ISZERO PUSH2 0x13B4 JUMPI RETURNDATASIZE PUSH0 DUP1 RETURNDATACOPY RETURNDATASIZE PUSH0 REVERT JUMPDEST POP POP POP POP PUSH1 0x40 MLOAD RETURNDATASIZE PUSH0 DUP3 RETURNDATACOPY PUSH1 0x1F RETURNDATASIZE SWAP1 DUP2 ADD PUSH1 0x1F NOT AND DUP3 ADD PUSH1 0x40 MSTORE PUSH2 0x13DB SWAP2 SWAP1 DUP2 ADD SWAP1 PUSH2 0x28CC JUMP JUMPDEST DUP2 MSTORE PUSH1 0x5 SLOAD PUSH1 0x40 DUP1 MLOAD PUSH4 0x6FDDE03 PUSH1 0xE0 SHL DUP2 MSTORE SWAP1 MLOAD PUSH1 0x1 PUSH1 0x1 PUSH1 0xA0 SHL SUB SWAP1 SWAP3 AND SWAP2 PUSH4 0x6FDDE03 SWAP2 PUSH1 0x4 DUP1 DUP3 ADD SWAP3 PUSH0 SWAP3 SWAP1 SWAP2 SWAP1 DUP3 SWAP1 SUB ADD DUP2 DUP7 GAS STATICCALL ISZERO DUP1 ISZERO PUSH2 0x1424 JUMPI RETURNDATASIZE PUSH0 DUP1 RETURNDATACOPY RETURNDATASIZE PUSH0 REVERT JUMPDEST POP POP POP POP PUSH1 0x40 MLOAD RETURNDATASIZE PUSH0 DUP3 RETURNDATACOPY PUSH1 0x1F RETURNDATASIZE SWAP1 DUP2 ADD PUSH1 0x1F NOT AND DUP3 ADD PUSH1 0x40 MSTORE PUSH2 0x144B SWAP2 SWAP1 DUP2 ADD SWAP1 PUSH2 0x28CC JUMP JUMPDEST PUSH1 0x20 DUP1 DUP4 ADD SWAP2 SWAP1 SWAP2 MSTORE PUSH1 0x5 SLOAD PUSH1 0x40 DUP1 MLOAD PUSH4 0x313CE567 PUSH1 0xE0 SHL DUP2 MSTORE SWAP1 MLOAD PUSH1 0x1 PUSH1 0x1 PUSH1 0xA0 SHL SUB SWAP1 SWAP3 AND SWAP3 PUSH4 0x313CE567 SWAP3 PUSH1 0x4 DUP1 DUP5 ADD SWAP4 DUP3 SWAP1 SUB ADD DUP2 DUP7 GAS STATICCALL ISZERO DUP1 ISZERO PUSH2 0x1496 JUMPI RETURNDATASIZE PUSH0 DUP1 RETURNDATACOPY RETURNDATASIZE PUSH0 REVERT JUMPDEST POP POP POP POP PUSH1 0x40 MLOAD RETURNDATASIZE PUSH1 0x1F NOT PUSH1 0x1F DUP3 ADD AND DUP3 ADD DUP1 PUSH1 0x40 MSTORE POP DUP2 ADD SWAP1 PUSH2 0x14BA SWAP2 SWAP1 PUSH2 0x2974 JUMP JUMPDEST PUSH1 0xFF AND PUSH1 0x40 DUP3 DUP2 ADD SWAP2 SWAP1 SWAP2 MSTORE PUSH1 0x5 SLOAD SWAP1 MLOAD PUSH4 0x70A08231 PUSH1 0xE0 SHL DUP2 MSTORE PUSH1 0x1 PUSH1 0x1 PUSH1 0xA0 SHL SUB DUP5 DUP2 AND PUSH1 0x4 DUP4 ADD MSTORE SWAP1 SWAP2 AND SWAP1 PUSH4 0x70A08231 SWAP1 PUSH1 0x24 ADD PUSH1 0x20 PUSH1 0x40 MLOAD DUP1 DUP4 SUB DUP2 DUP7 GAS STATICCALL ISZERO DUP1 ISZERO PUSH2 0x150D JUMPI RETURNDATASIZE PUSH0 DUP1 RETURNDATACOPY RETURNDATASIZE PUSH0 REVERT JUMPDEST POP POP POP POP PUSH1 0x40 MLOAD RETURNDATASIZE PUSH1 0x1F NOT PUSH1 0x1F DUP3 ADD AND DUP3 ADD DUP1 PUSH1 0x40 MSTORE POP DUP2 ADD SWAP1 PUSH2 0x1531 SWAP2 SWAP1 PUSH2 0x28B5 JUMP JUMPDEST PUSH1 0x60 DUP3 ADD MSTORE PUSH1 0x5 SLOAD PUSH1 0x40 MLOAD PUSH4 0x6EB1769F PUSH1 0xE1 SHL DUP2 MSTORE PUSH1 0x1 PUSH1 0x1 PUSH1 0xA0 SHL SUB DUP5 DUP2 AND PUSH1 0x4 DUP4 ADD MSTORE ADDRESS PUSH1 0x24 DUP4 ADD MSTORE SWAP1 SWAP2 AND SWAP1 PUSH4 0xDD62ED3E SWAP1 PUSH1 0x44 ADD PUSH1 0x20 PUSH1 0x40 MLOAD DUP1 DUP4 SUB DUP2 DUP7 GAS STATICCALL ISZERO DUP1 ISZERO PUSH2 0x1584 JUMPI RETURNDATASIZE PUSH0 DUP1 RETURNDATACOPY RETURNDATASIZE PUSH0 REVERT JUMPDEST POP POP POP POP PUSH1 0x40 MLOAD RETURNDATASIZE PUSH1 0x1F NOT PUSH1 0x1F DUP3 ADD AND DUP3 ADD DUP1 PUSH1 0x40 MSTORE POP DUP2 ADD SWAP1 PUSH2 0x15A8 SWAP2 SWAP1 PUSH2 0x28B5 JUMP JUMPDEST PUSH1 0x80 DUP3 ADD MSTORE SWAP2 SWAP1 POP JUMP JUMPDEST PUSH2 0x15BA PUSH2 0x2348 JUMP JUMPDEST CALLER PUSH0 SWAP1 DUP2 MSTORE PUSH1 0x7 PUSH1 0x20 MSTORE PUSH1 0x40 SWAP1 KECCAK256 PUSH1 0x1 DUP2 ADD SLOAD DUP3 GT ISZERO PUSH2 0x1613 JUMPI PUSH1 0x40 MLOAD PUSH3 0x461BCD PUSH1 0xE5 SHL DUP2 MSTORE PUSH1 0x20 PUSH1 0x4 DUP3 ADD MSTORE PUSH1 0x14 PUSH1 0x24 DUP3 ADD MSTORE PUSH20 0x125B9CDD59999A58DA595B9D0819195C1BDCDA5D PUSH1 0x62 SHL PUSH1 0x44 DUP3 ADD MSTORE PUSH1 0x64 ADD PUSH2 0x7D4 JUMP JUMPDEST DUP2 DUP2 PUSH1 0x1 ADD SLOAD PUSH2 0x1623 SWAP2 SWAP1 PUSH2 0x285F JUMP JUMPDEST PUSH1 0x1 DUP3 ADD SSTORE PUSH1 0xA SLOAD PUSH2 0x1636 SWAP1 DUP4 SWAP1 PUSH2 0x285F JUMP JUMPDEST PUSH1 0xA SSTORE PUSH1 0x5 SLOAD PUSH1 0x40 MLOAD PUSH4 0xA9059CBB PUSH1 0xE0 SHL DUP2 MSTORE CALLER PUSH1 0x4 DUP3 ADD MSTORE PUSH1 0x24 DUP2 ADD DUP5 SWAP1 MSTORE PUSH1 0x1 PUSH1 0x1 PUSH1 0xA0 SHL SUB SWAP1 SWAP2 AND SWAP1 PUSH4 0xA9059CBB SWAP1 PUSH1 0x44 ADD PUSH1 0x20 PUSH1 0x40 MLOAD DUP1 DUP4 SUB DUP2 PUSH0 DUP8 GAS CALL ISZERO DUP1 ISZERO PUSH2 0x1687 JUMPI RETURNDATASIZE PUSH0 DUP1 RETURNDATACOPY RETURNDATASIZE PUSH0 REVERT JUMPDEST POP POP POP POP PUSH1 0x40 MLOAD RETURNDATASIZE PUSH1 0x1F NOT PUSH1 0x1F DUP3 ADD AND DUP3 ADD DUP1 PUSH1 0x40 MSTORE POP DUP2 ADD SWAP1 PUSH2 0x16AB SWAP2 SWAP1 PUSH2 0x2872 JUMP JUMPDEST POP PUSH1 0x40 MLOAD DUP3 DUP2 MSTORE CALLER SWAP1 PUSH32 0x884EDAD9CE6FA2440D8A54CC123490EB96D2768479D49FF9C7366125A9424364 SWAP1 PUSH1 0x20 ADD PUSH1 0x40 MLOAD DUP1 SWAP2 SUB SWAP1 LOG2 POP PUSH2 0x16EB PUSH1 0x1 PUSH0 SSTORE JUMP JUMPDEST POP JUMP JUMPDEST PUSH1 0x2 SLOAD PUSH1 0x1 PUSH1 0x1 PUSH1 0xA0 SHL SUB AND CALLER EQ PUSH2 0x1718 JUMPI PUSH1 0x40 MLOAD PUSH3 0x461BCD PUSH1 0xE5 SHL DUP2 MSTORE PUSH1 0x4 ADD PUSH2 0x7D4 SWAP1 PUSH2 0x2994 JUMP JUMPDEST PUSH1 0x1 SSTORE JUMP JUMPDEST PUSH1 0x2 SLOAD PUSH1 0x1 PUSH1 0x1 PUSH1 0xA0 SHL SUB AND CALLER EQ PUSH2 0x1747 JUMPI PUSH1 0x40 MLOAD PUSH3 0x461BCD PUSH1 0xE5 SHL DUP2 MSTORE PUSH1 0x4 ADD PUSH2 0x7D4 SWAP1 PUSH2 0x2994 JUMP JUMPDEST PUSH1 0x5 SLOAD PUSH1 0x1 PUSH1 0x1 PUSH1 0xA0 SHL SUB SWAP1 DUP2 AND SWAP1 DUP4 AND SUB PUSH2 0x17B9 JUMPI PUSH1 0x40 MLOAD PUSH3 0x461BCD PUSH1 0xE5 SHL DUP2 MSTORE PUSH1 0x20 PUSH1 0x4 DUP3 ADD MSTORE PUSH1 0x2B PUSH1 0x24 DUP3 ADD MSTORE PUSH32 0x43616E74207265636F7765722067616D6520746F6B656E2E204F6E6C79206261 PUSH1 0x44 DUP3 ADD MSTORE PUSH11 0x6E6B207769746864726177 PUSH1 0xA8 SHL PUSH1 0x64 DUP3 ADD MSTORE PUSH1 0x84 ADD PUSH2 0x7D4 JUMP JUMPDEST PUSH1 0x2 SLOAD PUSH1 0x40 MLOAD PUSH4 0xA9059CBB PUSH1 0xE0 SHL DUP2 MSTORE PUSH1 0x1 PUSH1 0x1 PUSH1 0xA0 SHL SUB SWAP2 DUP3 AND PUSH1 0x4 DUP3 ADD MSTORE PUSH1 0x24 DUP2 ADD DUP4 SWAP1 MSTORE SWAP1 DUP4 AND SWAP1 PUSH4 0xA9059CBB SWAP1 PUSH1 0x44 ADD PUSH1 0x20 PUSH1 0x40 MLOAD DUP1 DUP4 SUB DUP2 PUSH0 DUP8 GAS CALL ISZERO DUP1 ISZERO PUSH2 0x1809 JUMPI RETURNDATASIZE PUSH0 DUP1 RETURNDATACOPY RETURNDATASIZE PUSH0 REVERT JUMPDEST POP POP POP POP PUSH1 0x40 MLOAD RETURNDATASIZE PUSH1 0x1F NOT PUSH1 0x1F DUP3 ADD AND DUP3 ADD DUP1 PUSH1 0x40 MSTORE POP DUP2 ADD SWAP1 PUSH2 0x182D SWAP2 SWAP1 PUSH2 0x2872 JUMP JUMPDEST POP POP POP JUMP JUMPDEST PUSH2 0x183A PUSH2 0x2348 JUMP JUMPDEST PUSH1 0x2 SLOAD PUSH1 0x1 PUSH1 0x1 PUSH1 0xA0 SHL SUB AND CALLER EQ PUSH2 0x1864 JUMPI PUSH1 0x40 MLOAD PUSH3 0x461BCD PUSH1 0xE5 SHL DUP2 MSTORE PUSH1 0x4 ADD PUSH2 0x7D4 SWAP1 PUSH2 0x2994 JUMP JUMPDEST PUSH0 DUP2 GT PUSH2 0x18A8 JUMPI PUSH1 0x40 MLOAD PUSH3 0x461BCD PUSH1 0xE5 SHL DUP2 MSTORE PUSH1 0x20 PUSH1 0x4 DUP3 ADD MSTORE PUSH1 0x12 PUSH1 0x24 DUP3 ADD MSTORE PUSH18 0x416D6F756E74206D757374206265203E203 PUSH1 0x74 SHL PUSH1 0x44 DUP3 ADD MSTORE PUSH1 0x64 ADD PUSH2 0x7D4 JUMP JUMPDEST PUSH1 0x5 SLOAD PUSH1 0x40 MLOAD PUSH4 0x23B872DD PUSH1 0xE0 SHL DUP2 MSTORE CALLER PUSH1 0x4 DUP3 ADD MSTORE ADDRESS PUSH1 0x24 DUP3 ADD MSTORE PUSH1 0x44 DUP2 ADD DUP4 SWAP1 MSTORE PUSH1 0x1 PUSH1 0x1 PUSH1 0xA0 SHL SUB SWAP1 SWAP2 AND SWAP1 PUSH4 0x23B872DD SWAP1 PUSH1 0x64 ADD PUSH1 0x20 PUSH1 0x40 MLOAD DUP1 DUP4 SUB DUP2 PUSH0 DUP8 GAS CALL ISZERO DUP1 ISZERO PUSH2 0x18FC JUMPI RETURNDATASIZE PUSH0 DUP1 RETURNDATACOPY RETURNDATASIZE PUSH0 REVERT JUMPDEST POP POP POP POP PUSH1 0x40 MLOAD RETURNDATASIZE PUSH1 0x1F NOT PUSH1 0x1F DUP3 ADD AND DUP3 ADD DUP1 PUSH1 0x40 MSTORE POP DUP2 ADD SWAP1 PUSH2 0x1920 SWAP2 SWAP1 PUSH2 0x2872 JUMP JUMPDEST POP DUP1 PUSH1 0x13 SLOAD PUSH2 0x192F SWAP2 SWAP1 PUSH2 0x2834 JUMP JUMPDEST PUSH1 0x13 SSTORE PUSH2 0x16EB PUSH1 0x1 PUSH0 SSTORE JUMP JUMPDEST PUSH1 0x2 SLOAD PUSH1 0x1 PUSH1 0x1 PUSH1 0xA0 SHL SUB AND CALLER EQ PUSH2 0x1965 JUMPI PUSH1 0x40 MLOAD PUSH3 0x461BCD PUSH1 0xE5 SHL DUP2 MSTORE PUSH1 0x4 ADD PUSH2 0x7D4 SWAP1 PUSH2 0x2994 JUMP JUMPDEST PUSH1 0x1 PUSH1 0x1 PUSH1 0xA0 SHL SUB SWAP2 SWAP1 SWAP2 AND PUSH0 SWAP1 DUP2 MSTORE PUSH1 0x7 PUSH1 0x20 MSTORE PUSH1 0x40 SWAP1 KECCAK256 PUSH1 0x8 ADD DUP1 SLOAD PUSH1 0xFF NOT AND SWAP2 ISZERO ISZERO SWAP2 SWAP1 SWAP2 OR SWAP1 SSTORE JUMP JUMPDEST PUSH1 0x2 SLOAD PUSH1 0x1 PUSH1 0x1 PUSH1 0xA0 SHL SUB AND CALLER EQ PUSH2 0x19BC JUMPI PUSH1 0x40 MLOAD PUSH3 0x461BCD PUSH1 0xE5 SHL DUP2 MSTORE PUSH1 0x4 ADD PUSH2 0x7D4 SWAP1 PUSH2 0x2994 JUMP JUMPDEST PUSH1 0x16 SSTORE JUMP JUMPDEST PUSH1 0x2 SLOAD PUSH1 0x1 PUSH1 0x1 PUSH1 0xA0 SHL SUB AND CALLER EQ PUSH2 0x19EB JUMPI PUSH1 0x40 MLOAD PUSH3 0x461BCD PUSH1 0xE5 SHL DUP2 MSTORE PUSH1 0x4 ADD PUSH2 0x7D4 SWAP1 PUSH2 0x2994 JUMP JUMPDEST PUSH1 0x2 DUP1 SLOAD PUSH1 0x1 PUSH1 0x1 PUSH1 0xA0 SHL SUB NOT AND PUSH1 0x1 PUSH1 0x1 PUSH1 0xA0 SHL SUB SWAP3 SWAP1 SWAP3 AND SWAP2 SWAP1 SWAP2 OR SWAP1 SSTORE JUMP JUMPDEST PUSH1 0x2 SLOAD PUSH1 0x1 PUSH1 0x1 PUSH1 0xA0 SHL SUB AND CALLER EQ PUSH2 0x1A37 JUMPI PUSH1 0x40 MLOAD PUSH3 0x461BCD PUSH1 0xE5 SHL DUP2 MSTORE PUSH1 0x4 ADD PUSH2 0x7D4 SWAP1 PUSH2 0x2994 JUMP JUMPDEST PUSH1 0x15 SSTORE JUMP JUMPDEST PUSH2 0x1A44 PUSH2 0x2348 JUMP JUMPDEST PUSH1 0x2 SLOAD PUSH1 0x1 PUSH1 0x1 PUSH1 0xA0 SHL SUB AND CALLER EQ PUSH2 0x1A6E JUMPI PUSH1 0x40 MLOAD PUSH3 0x461BCD PUSH1 0xE5 SHL DUP2 MSTORE PUSH1 0x4 ADD PUSH2 0x7D4 SWAP1 PUSH2 0x2994 JUMP JUMPDEST PUSH0 DUP2 GT PUSH2 0x1AB2 JUMPI PUSH1 0x40 MLOAD PUSH3 0x461BCD PUSH1 0xE5 SHL DUP2 MSTORE PUSH1 0x20 PUSH1 0x4 DUP3 ADD MSTORE PUSH1 0x12 PUSH1 0x24 DUP3 ADD MSTORE PUSH18 0x416D6F756E74206D757374206265203E203 PUSH1 0x74 SHL PUSH1 0x44 DUP3 ADD MSTORE PUSH1 0x64 ADD PUSH2 0x7D4 JUMP JUMPDEST PUSH1 0x5 SLOAD PUSH1 0x40 MLOAD PUSH4 0x23B872DD PUSH1 0xE0 SHL DUP2 MSTORE CALLER PUSH1 0x4 DUP3 ADD MSTORE ADDRESS PUSH1 0x24 DUP3 ADD MSTORE PUSH1 0x44 DUP2 ADD DUP4 SWAP1 MSTORE PUSH1 0x1 PUSH1 0x1 PUSH1 0xA0 SHL SUB SWAP1 SWAP2 AND SWAP1 PUSH4 0x23B872DD SWAP1 PUSH1 0x64 ADD PUSH1 0x20 PUSH1 0x40 MLOAD DUP1 DUP4 SUB DUP2 PUSH0 DUP8 GAS CALL ISZERO DUP1 ISZERO PUSH2 0x1B06 JUMPI RETURNDATASIZE PUSH0 DUP1 RETURNDATACOPY RETURNDATASIZE PUSH0 REVERT JUMPDEST POP POP POP POP PUSH1 0x40 MLOAD RETURNDATASIZE PUSH1 0x1F NOT PUSH1 0x1F DUP3 ADD AND DUP3 ADD DUP1 PUSH1 0x40 MSTORE POP DUP2 ADD SWAP1 PUSH2 0x1B2A SWAP2 SWAP1 PUSH2 0x2872 JUMP JUMPDEST POP PUSH0 PUSH1 0x14 SLOAD GT DUP1 ISZERO PUSH2 0x1B3E JUMPI POP PUSH1 0x14 SLOAD DUP2 LT ISZERO JUMPDEST ISZERO PUSH2 0x1B4C JUMPI PUSH0 PUSH1 0x14 SSTORE PUSH2 0x1B6B JUMP JUMPDEST PUSH1 0x14 SLOAD ISZERO PUSH2 0x1B6B JUMPI DUP1 PUSH1 0x14 PUSH0 DUP3 DUP3 SLOAD PUSH2 0x1B65 SWAP2 SWAP1 PUSH2 0x285F JUMP JUMPDEST SWAP1 SWAP2 SSTORE POP POP JUMPDEST PUSH2 0x16EB PUSH1 0x1 PUSH0 SSTORE JUMP JUMPDEST PUSH1 0x2 SLOAD PUSH1 0x1 PUSH1 0x1 PUSH1 0xA0 SHL SUB AND CALLER EQ PUSH2 0x1B9E JUMPI PUSH1 0x40 MLOAD PUSH3 0x461BCD PUSH1 0xE5 SHL DUP2 MSTORE PUSH1 0x4 ADD PUSH2 0x7D4 SWAP1 PUSH2 0x2994 JUMP JUMPDEST PUSH1 0x4 SSTORE JUMP JUMPDEST PUSH2 0x1BAB PUSH2 0x239F JUMP JUMPDEST PUSH0 DUP3 DUP2 MSTORE PUSH1 0xB PUSH1 0x20 SWAP1 DUP2 MSTORE PUSH1 0x40 SWAP2 DUP3 SWAP1 KECCAK256 DUP3 MLOAD PUSH2 0x120 DUP2 ADD DUP5 MSTORE DUP2 SLOAD DUP2 MSTORE PUSH1 0x1 DUP3 ADD SLOAD PUSH1 0x1 PUSH1 0x1 PUSH1 0xA0 SHL SUB AND SWAP3 DUP2 ADD SWAP3 SWAP1 SWAP3 MSTORE PUSH1 0x2 DUP1 DUP3 ADD SLOAD SWAP4 DUP4 ADD SWAP4 SWAP1 SWAP4 MSTORE PUSH1 0x3 DUP2 ADD SLOAD PUSH1 0x60 DUP4 ADD MSTORE PUSH1 0x4 DUP2 ADD SLOAD PUSH1 0x80 DUP4 ADD MSTORE PUSH1 0x5 DUP2 ADD SLOAD PUSH1 0xA0 DUP4 ADD MSTORE PUSH1 0x6 DUP2 ADD SLOAD PUSH1 0xFF SWAP1 DUP2 AND ISZERO ISZERO PUSH1 0xC0 DUP5 ADD MSTORE PUSH1 0x7 DUP3 ADD SLOAD PUSH1 0xE0 DUP5 ADD MSTORE PUSH1 0x8 DUP3 ADD SLOAD SWAP3 SWAP4 SWAP2 SWAP3 PUSH2 0x100 DUP6 ADD SWAP3 SWAP2 AND SWAP1 DUP2 GT ISZERO PUSH2 0x1C45 JUMPI PUSH2 0x1C45 PUSH2 0x2504 JUMP JUMPDEST PUSH1 0x2 DUP2 GT ISZERO PUSH2 0x1C56 JUMPI PUSH2 0x1C56 PUSH2 0x2504 JUMP JUMPDEST SWAP1 MSTORE POP SWAP3 SWAP2 POP POP JUMP JUMPDEST PUSH1 0x60 DUP2 PUSH0 SUB PUSH2 0x1C6E JUMPI PUSH1 0xC SLOAD SWAP2 POP JUMPDEST PUSH0 PUSH2 0x1C79 DUP4 DUP6 PUSH2 0x2834 JUMP JUMPDEST SWAP1 POP PUSH1 0xC SLOAD DUP5 GT ISZERO PUSH2 0x1C8B JUMPI POP PUSH2 0xEBA JUMP JUMPDEST PUSH1 0xC SLOAD DUP2 GT ISZERO PUSH2 0x1C9A JUMPI POP PUSH1 0xC SLOAD JUMPDEST PUSH2 0x1CA4 DUP5 DUP3 PUSH2 0x285F JUMP JUMPDEST PUSH8 0xFFFFFFFFFFFFFFFF DUP2 GT ISZERO PUSH2 0x1CBC JUMPI PUSH2 0x1CBC PUSH2 0x288D JUMP JUMPDEST PUSH1 0x40 MLOAD SWAP1 DUP1 DUP3 MSTORE DUP1 PUSH1 0x20 MUL PUSH1 0x20 ADD DUP3 ADD PUSH1 0x40 MSTORE DUP1 ISZERO PUSH2 0x1CF5 JUMPI DUP2 PUSH1 0x20 ADD JUMPDEST PUSH2 0x1CE2 PUSH2 0x239F JUMP JUMPDEST DUP2 MSTORE PUSH1 0x20 ADD SWAP1 PUSH1 0x1 SWAP1 SUB SWAP1 DUP2 PUSH2 0x1CDA JUMPI SWAP1 POP JUMPDEST POP SWAP2 POP PUSH0 JUMPDEST PUSH2 0x1D04 DUP6 DUP4 PUSH2 0x285F JUMP JUMPDEST DUP2 LT ISZERO PUSH2 0xEB7 JUMPI PUSH1 0xB PUSH0 DUP7 DUP4 PUSH1 0xC SLOAD PUSH2 0x1D1D SWAP2 SWAP1 PUSH2 0x285F JUMP JUMPDEST PUSH2 0x1D27 SWAP2 SWAP1 PUSH2 0x285F JUMP JUMPDEST DUP2 MSTORE PUSH1 0x20 DUP1 DUP3 ADD SWAP3 SWAP1 SWAP3 MSTORE PUSH1 0x40 SWAP1 DUP2 ADD PUSH0 KECCAK256 DUP2 MLOAD PUSH2 0x120 DUP2 ADD DUP4 MSTORE DUP2 SLOAD DUP2 MSTORE PUSH1 0x1 DUP3 ADD SLOAD PUSH1 0x1 PUSH1 0x1 PUSH1 0xA0 SHL SUB AND SWAP4 DUP2 ADD SWAP4 SWAP1 SWAP4 MSTORE PUSH1 0x2 DUP1 DUP3 ADD SLOAD SWAP3 DUP5 ADD SWAP3 SWAP1 SWAP3 MSTORE PUSH1 0x3 DUP2 ADD SLOAD PUSH1 0x60 DUP5 ADD MSTORE PUSH1 0x4 DUP2 ADD SLOAD PUSH1 0x80 DUP5 ADD MSTORE PUSH1 0x5 DUP2 ADD SLOAD PUSH1 0xA0 DUP5 ADD MSTORE PUSH1 0x6 DUP2 ADD SLOAD PUSH1 0xFF SWAP1 DUP2 AND ISZERO ISZERO PUSH1 0xC0 DUP6 ADD MSTORE PUSH1 0x7 DUP3 ADD SLOAD PUSH1 0xE0 DUP6 ADD MSTORE PUSH1 0x8 DUP3 ADD SLOAD SWAP2 SWAP3 PUSH2 0x100 DUP6 ADD SWAP3 SWAP1 SWAP2 AND SWAP1 DUP2 GT ISZERO PUSH2 0x1DC1 JUMPI PUSH2 0x1DC1 PUSH2 0x2504 JUMP JUMPDEST PUSH1 0x2 DUP2 GT ISZERO PUSH2 0x1DD2 JUMPI PUSH2 0x1DD2 PUSH2 0x2504 JUMP JUMPDEST DUP2 MSTORE POP POP DUP4 DUP3 DUP2 MLOAD DUP2 LT PUSH2 0x1DE8 JUMPI PUSH2 0x1DE8 PUSH2 0x28A1 JUMP JUMPDEST PUSH1 0x20 SWAP1 DUP2 MUL SWAP2 SWAP1 SWAP2 ADD ADD MSTORE PUSH1 0x1 ADD PUSH2 0x1CFA JUMP JUMPDEST PUSH2 0x1E03 PUSH2 0x2348 JUMP JUMPDEST PUSH0 DUP2 GT PUSH2 0x1E52 JUMPI PUSH1 0x40 MLOAD PUSH3 0x461BCD PUSH1 0xE5 SHL DUP2 MSTORE PUSH1 0x20 PUSH1 0x4 DUP3 ADD MSTORE PUSH1 0x1A PUSH1 0x24 DUP3 ADD MSTORE PUSH32 0x4465706F73697420616D6F756E74206D757374206265203E2030000000000000 PUSH1 0x44 DUP3 ADD MSTORE PUSH1 0x64 ADD PUSH2 0x7D4 JUMP JUMPDEST PUSH1 0x5 SLOAD PUSH1 0x40 MLOAD PUSH4 0x23B872DD PUSH1 0xE0 SHL DUP2 MSTORE CALLER PUSH1 0x4 DUP3 ADD MSTORE ADDRESS PUSH1 0x24 DUP3 ADD MSTORE PUSH1 0x44 DUP2 ADD DUP4 SWAP1 MSTORE PUSH1 0x1 PUSH1 0x1 PUSH1 0xA0 SHL SUB SWAP1 SWAP2 AND SWAP1 PUSH4 0x23B872DD SWAP1 PUSH1 0x64 ADD PUSH1 0x20 PUSH1 0x40 MLOAD DUP1 DUP4 SUB DUP2 PUSH0 DUP8 GAS CALL ISZERO DUP1 ISZERO PUSH2 0x1EA6 JUMPI RETURNDATASIZE PUSH0 DUP1 RETURNDATACOPY RETURNDATASIZE PUSH0 REVERT JUMPDEST POP POP POP POP PUSH1 0x40 MLOAD RETURNDATASIZE PUSH1 0x1F NOT PUSH1 0x1F DUP3 ADD AND DUP3 ADD DUP1 PUSH1 0x40 MSTORE POP DUP2 ADD SWAP1 PUSH2 0x1ECA SWAP2 SWAP1 PUSH2 0x2872 JUMP JUMPDEST POP CALLER PUSH0 DUP2 DUP2 MSTORE PUSH1 0x7 PUSH1 0x20 MSTORE PUSH1 0x40 SWAP1 KECCAK256 SLOAD PUSH1 0x1 PUSH1 0x1 PUSH1 0xA0 SHL SUB AND EQ PUSH2 0x1F38 JUMPI CALLER PUSH0 DUP2 DUP2 MSTORE PUSH1 0x7 PUSH1 0x20 SWAP1 DUP2 MSTORE PUSH1 0x40 DUP1 DUP4 KECCAK256 DUP1 SLOAD PUSH1 0x1 PUSH1 0x1 PUSH1 0xA0 SHL SUB NOT SWAP1 DUP2 AND DUP7 OR SWAP1 SWAP2 SSTORE PUSH1 0x9 DUP1 SLOAD DUP6 MSTORE PUSH1 0x8 SWAP1 SWAP4 MSTORE SWAP1 DUP4 KECCAK256 DUP1 SLOAD SWAP1 SWAP2 AND SWAP1 SWAP4 OR SWAP1 SWAP3 SSTORE DUP2 SLOAD SWAP2 SWAP1 PUSH2 0x1F32 DUP4 PUSH2 0x2847 JUMP JUMPDEST SWAP2 SWAP1 POP SSTORE POP JUMPDEST CALLER PUSH0 SWAP1 DUP2 MSTORE PUSH1 0x7 PUSH1 0x20 MSTORE PUSH1 0x40 SWAP1 KECCAK256 PUSH1 0x1 ADD SLOAD PUSH2 0x1F55 SWAP1 DUP3 SWAP1 PUSH2 0x2834 JUMP JUMPDEST CALLER PUSH0 SWAP1 DUP2 MSTORE PUSH1 0x7 PUSH1 0x20 MSTORE PUSH1 0x40 SWAP1 KECCAK256 PUSH1 0x1 ADD SSTORE PUSH1 0xA SLOAD PUSH2 0x1F75 SWAP1 DUP3 SWAP1 PUSH2 0x2834 JUMP JUMPDEST PUSH1 0xA SSTORE PUSH1 0x40 MLOAD DUP2 DUP2 MSTORE CALLER SWAP1 PUSH32 0xE1FFFCC4923D04B559F4D29A8BFC6CDA04EB5B0D3C460751C2402C5C5CC9109C SWAP1 PUSH1 0x20 ADD PUSH1 0x40 MLOAD DUP1 SWAP2 SUB SWAP1 LOG2 PUSH2 0x16EB PUSH1 0x1 PUSH0 SSTORE JUMP JUMPDEST PUSH2 0x1FBE PUSH2 0x2348 JUMP JUMPDEST PUSH1 0x2 SLOAD PUSH1 0x1 PUSH1 0x1 PUSH1 0xA0 SHL SUB AND CALLER EQ PUSH2 0x1FE8 JUMPI PUSH1 0x40 MLOAD PUSH3 0x461BCD PUSH1 0xE5 SHL DUP2 MSTORE PUSH1 0x4 ADD PUSH2 0x7D4 SWAP1 PUSH2 0x2994 JUMP JUMPDEST PUSH1 0x13 SLOAD DUP2 GT ISZERO PUSH2 0x202F JUMPI PUSH1 0x40 MLOAD PUSH3 0x461BCD PUSH1 0xE5 SHL DUP2 MSTORE PUSH1 0x20 PUSH1 0x4 DUP3 ADD MSTORE PUSH1 0x12 PUSH1 0x24 DUP3 ADD MSTORE PUSH18 0x4E6F7420656E6F75676820696E2062616E6B PUSH1 0x70 SHL PUSH1 0x44 DUP3 ADD MSTORE PUSH1 0x64 ADD PUSH2 0x7D4 JUMP JUMPDEST DUP1 PUSH1 0x13 SLOAD PUSH2 0x203D SWAP2 SWAP1 PUSH2 0x285F JUMP JUMPDEST PUSH1 0x13 SSTORE PUSH1 0x5 SLOAD PUSH1 0x2 SLOAD PUSH1 0x40 MLOAD PUSH4 0xA9059CBB PUSH1 0xE0 SHL DUP2 MSTORE PUSH1 0x1 PUSH1 0x1 PUSH1 0xA0 SHL SUB SWAP2 DUP3 AND PUSH1 0x4 DUP3 ADD MSTORE PUSH1 0x24 DUP2 ADD DUP5 SWAP1 MSTORE SWAP2 AND SWAP1 PUSH4 0xA9059CBB SWAP1 PUSH1 0x44 ADD PUSH1 0x20 PUSH1 0x40 MLOAD DUP1 DUP4 SUB DUP2 PUSH0 DUP8 GAS CALL ISZERO DUP1 ISZERO PUSH2 0x2092 JUMPI RETURNDATASIZE PUSH0 DUP1 RETURNDATACOPY RETURNDATASIZE PUSH0 REVERT JUMPDEST POP POP POP POP PUSH1 0x40 MLOAD RETURNDATASIZE PUSH1 0x1F NOT PUSH1 0x1F DUP3 ADD AND DUP3 ADD DUP1 PUSH1 0x40 MSTORE POP DUP2 ADD SWAP1 PUSH2 0x20B6 SWAP2 SWAP1 PUSH2 0x2872 JUMP JUMPDEST POP PUSH2 0x16EB PUSH1 0x1 PUSH0 SSTORE JUMP JUMPDEST PUSH1 0x2 SLOAD PUSH1 0x1 PUSH1 0x1 PUSH1 0xA0 SHL SUB AND CALLER EQ PUSH2 0x20EA JUMPI PUSH1 0x40 MLOAD PUSH3 0x461BCD PUSH1 0xE5 SHL DUP2 MSTORE PUSH1 0x4 ADD PUSH2 0x7D4 SWAP1 PUSH2 0x2994 JUMP JUMPDEST PUSH1 0x3 DUP1 SLOAD PUSH1 0x1 PUSH1 0x1 PUSH1 0xA0 SHL SUB NOT AND PUSH1 0x1 PUSH1 0x1 PUSH1 0xA0 SHL SUB SWAP3 SWAP1 SWAP3 AND SWAP2 SWAP1 SWAP2 OR SWAP1 SSTORE JUMP JUMPDEST PUSH1 0x60 DUP2 PUSH0 SUB PUSH2 0x2130 JUMPI PUSH1 0x1 PUSH1 0x1 PUSH1 0xA0 SHL SUB DUP5 AND PUSH0 SWAP1 DUP2 MSTORE PUSH1 0x11 PUSH1 0x20 MSTORE PUSH1 0x40 SWAP1 KECCAK256 SLOAD SWAP2 POP JUMPDEST PUSH0 PUSH2 0x213B DUP4 DUP6 PUSH2 0x2834 JUMP JUMPDEST PUSH1 0x1 PUSH1 0x1 PUSH1 0xA0 SHL SUB DUP7 AND PUSH0 SWAP1 DUP2 MSTORE PUSH1 0x11 PUSH1 0x20 MSTORE PUSH1 0x40 SWAP1 KECCAK256 SLOAD SWAP1 SWAP2 POP DUP5 GT ISZERO PUSH2 0x2163 JUMPI POP PUSH2 0x2341 JUMP JUMPDEST PUSH1 0x1 PUSH1 0x1 PUSH1 0xA0 SHL SUB DUP6 AND PUSH0 SWAP1 DUP2 MSTORE PUSH1 0x11 PUSH1 0x20 MSTORE PUSH1 0x40 SWAP1 KECCAK256 SLOAD DUP2 GT ISZERO PUSH2 0x219C JUMPI POP PUSH1 0x1 PUSH1 0x1 PUSH1 0xA0 SHL SUB DUP5 AND PUSH0 SWAP1 DUP2 MSTORE PUSH1 0x11 PUSH1 0x20 MSTORE PUSH1 0x40 SWAP1 KECCAK256 SLOAD JUMPDEST PUSH2 0x21A6 DUP5 DUP3 PUSH2 0x285F JUMP JUMPDEST PUSH8 0xFFFFFFFFFFFFFFFF DUP2 GT ISZERO PUSH2 0x21BE JUMPI PUSH2 0x21BE PUSH2 0x288D JUMP JUMPDEST PUSH1 0x40 MLOAD SWAP1 DUP1 DUP3 MSTORE DUP1 PUSH1 0x20 MUL PUSH1 0x20 ADD DUP3 ADD PUSH1 0x40 MSTORE DUP1 ISZERO PUSH2 0x21F7 JUMPI DUP2 PUSH1 0x20 ADD JUMPDEST PUSH2 0x21E4 PUSH2 0x239F JUMP JUMPDEST DUP2 MSTORE PUSH1 0x20 ADD SWAP1 PUSH1 0x1 SWAP1 SUB SWAP1 DUP2 PUSH2 0x21DC JUMPI SWAP1 POP JUMPDEST POP SWAP2 POP PUSH0 JUMPDEST PUSH2 0x2206 DUP6 DUP4 PUSH2 0x285F JUMP JUMPDEST DUP2 LT ISZERO PUSH2 0x233E JUMPI PUSH1 0x1 PUSH1 0x1 PUSH1 0xA0 SHL SUB DUP7 AND PUSH0 SWAP1 DUP2 MSTORE PUSH1 0x11 PUSH1 0x20 MSTORE PUSH1 0x40 DUP2 KECCAK256 DUP1 SLOAD PUSH1 0xB SWAP3 SWAP2 SWAP1 PUSH1 0x1 SWAP1 DUP10 SWAP1 PUSH2 0x223B SWAP1 DUP8 SWAP1 PUSH2 0x285F JUMP JUMPDEST PUSH2 0x2245 SWAP2 SWAP1 PUSH2 0x285F JUMP JUMPDEST PUSH2 0x224F SWAP2 SWAP1 PUSH2 0x285F JUMP JUMPDEST DUP2 SLOAD DUP2 LT PUSH2 0x225F JUMPI PUSH2 0x225F PUSH2 0x28A1 JUMP JUMPDEST PUSH0 SWAP2 DUP3 MSTORE PUSH1 0x20 DUP1 DUP4 KECCAK256 SWAP1 SWAP2 ADD SLOAD DUP4 MSTORE DUP3 DUP2 ADD SWAP4 SWAP1 SWAP4 MSTORE PUSH1 0x40 SWAP2 DUP3 ADD SWAP1 KECCAK256 DUP2 MLOAD PUSH2 0x120 DUP2 ADD DUP4 MSTORE DUP2 SLOAD DUP2 MSTORE PUSH1 0x1 DUP3 ADD SLOAD PUSH1 0x1 PUSH1 0x1 PUSH1 0xA0 SHL SUB AND SWAP4 DUP2 ADD SWAP4 SWAP1 SWAP4 MSTORE PUSH1 0x2 DUP1 DUP3 ADD SLOAD SWAP3 DUP5 ADD SWAP3 SWAP1 SWAP3 MSTORE PUSH1 0x3 DUP2 ADD SLOAD PUSH1 0x60 DUP5 ADD MSTORE PUSH1 0x4 DUP2 ADD SLOAD PUSH1 0x80 DUP5 ADD MSTORE PUSH1 0x5 DUP2 ADD SLOAD PUSH1 0xA0 DUP5 ADD MSTORE PUSH1 0x6 DUP2 ADD SLOAD PUSH1 0xFF SWAP1 DUP2 AND ISZERO ISZERO PUSH1 0xC0 DUP6 ADD MSTORE PUSH1 0x7 DUP3 ADD SLOAD PUSH1 0xE0 DUP6 ADD MSTORE PUSH1 0x8 DUP3 ADD SLOAD SWAP2 SWAP3 PUSH2 0x100 DUP6 ADD SWAP3 SWAP1 SWAP2 AND SWAP1 DUP2 GT ISZERO PUSH2 0x2304 JUMPI PUSH2 0x2304 PUSH2 0x2504 JUMP JUMPDEST PUSH1 0x2 DUP2 GT ISZERO PUSH2 0x2315 JUMPI PUSH2 0x2315 PUSH2 0x2504 JUMP JUMPDEST DUP2 MSTORE POP POP DUP4 DUP3 DUP2 MLOAD DUP2 LT PUSH2 0x232B JUMPI PUSH2 0x232B PUSH2 0x28A1 JUMP JUMPDEST PUSH1 0x20 SWAP1 DUP2 MUL SWAP2 SWAP1 SWAP2 ADD ADD MSTORE PUSH1 0x1 ADD PUSH2 0x21FC JUMP JUMPDEST POP POP JUMPDEST SWAP4 SWAP3 POP POP POP JUMP JUMPDEST PUSH1 0x2 PUSH0 SLOAD SUB PUSH2 0x2399 JUMPI PUSH1 0x40 MLOAD PUSH3 0x461BCD PUSH1 0xE5 SHL DUP2 MSTORE PUSH1 0x20 PUSH1 0x4 DUP3 ADD MSTORE PUSH1 0x1F PUSH1 0x24 DUP3 ADD MSTORE PUSH32 0x5265656E7472616E637947756172643A207265656E7472616E742063616C6C00 PUSH1 0x44 DUP3 ADD MSTORE PUSH1 0x64 ADD PUSH2 0x7D4 JUMP JUMPDEST PUSH1 0x2 PUSH0 SSTORE JUMP JUMPDEST PUSH1 0x40 DUP1 MLOAD PUSH2 0x120 DUP2 ADD DUP3 MSTORE PUSH0 DUP1 DUP3 MSTORE PUSH1 0x20 DUP3 ADD DUP2 SWAP1 MSTORE SWAP2 DUP2 ADD DUP3 SWAP1 MSTORE PUSH1 0x60 DUP2 ADD DUP3 SWAP1 MSTORE PUSH1 0x80 DUP2 ADD DUP3 SWAP1 MSTORE PUSH1 0xA0 DUP2 ADD DUP3 SWAP1 MSTORE PUSH1 0xC0 DUP2 ADD DUP3 SWAP1 MSTORE PUSH1 0xE0 DUP2 ADD DUP3 SWAP1 MSTORE SWAP1 PUSH2 0x100 DUP3 ADD MSTORE SWAP1 JUMP JUMPDEST PUSH0 DUP1 PUSH1 0x40 DUP4 DUP6 SUB SLT ISZERO PUSH2 0x23F9 JUMPI PUSH0 DUP1 REVERT JUMPDEST POP POP DUP1 CALLDATALOAD SWAP3 PUSH1 0x20 SWAP1 SWAP2 ADD CALLDATALOAD SWAP2 POP JUMP JUMPDEST DUP1 CALLDATALOAD PUSH1 0x1 PUSH1 0x1 PUSH1 0xA0 SHL SUB DUP2 AND DUP2 EQ PUSH2 0x241E JUMPI PUSH0 DUP1 REVERT JUMPDEST SWAP2 SWAP1 POP JUMP JUMPDEST PUSH0 DUP1 PUSH1 0x40 DUP4 DUP6 SUB SLT ISZERO PUSH2 0x2434 JUMPI PUSH0 DUP1 REVERT JUMPDEST PUSH2 0x243D DUP4 PUSH2 0x2408 JUMP JUMPDEST SWAP5 PUSH1 0x20 SWAP4 SWAP1 SWAP4 ADD CALLDATALOAD SWAP4 POP POP POP JUMP JUMPDEST PUSH1 0x20 DUP1 DUP3 MSTORE DUP3 MLOAD DUP3 DUP3 ADD DUP2 SWAP1 MSTORE PUSH0 SWAP2 SWAP1 PUSH1 0x40 SWAP1 DUP2 DUP6 ADD SWAP1 DUP7 DUP5 ADD DUP6 JUMPDEST DUP3 DUP2 LT ISZERO PUSH2 0x24E0 JUMPI DUP2 MLOAD DUP1 MLOAD PUSH1 0x1 PUSH1 0x1 PUSH1 0xA0 SHL SUB AND DUP6 MSTORE DUP7 DUP2 ADD MLOAD DUP8 DUP7 ADD MSTORE DUP6 DUP2 ADD MLOAD DUP7 DUP7 ADD MSTORE PUSH1 0x60 DUP1 DUP3 ADD MLOAD SWAP1 DUP7 ADD MSTORE PUSH1 0x80 DUP1 DUP3 ADD MLOAD SWAP1 DUP7 ADD MSTORE PUSH1 0xA0 DUP1 DUP3 ADD MLOAD SWAP1 DUP7 ADD MSTORE PUSH1 0xC0 DUP1 DUP3 ADD MLOAD SWAP1 DUP7 ADD MSTORE PUSH1 0xE0 DUP1 DUP3 ADD MLOAD SWAP1 DUP7 ADD MSTORE PUSH2 0x100 SWAP1 DUP2 ADD MLOAD ISZERO ISZERO SWAP1 DUP6 ADD MSTORE PUSH2 0x120 SWAP1 SWAP4 ADD SWAP3 SWAP1 DUP6 ADD SWAP1 PUSH1 0x1 ADD PUSH2 0x2467 JUMP JUMPDEST POP SWAP2 SWAP8 SWAP7 POP POP POP POP POP POP POP JUMP JUMPDEST PUSH0 PUSH1 0x20 DUP3 DUP5 SUB SLT ISZERO PUSH2 0x24FD JUMPI PUSH0 DUP1 REVERT JUMPDEST POP CALLDATALOAD SWAP2 SWAP1 POP JUMP JUMPDEST PUSH4 0x4E487B71 PUSH1 0xE0 SHL PUSH0 MSTORE PUSH1 0x21 PUSH1 0x4 MSTORE PUSH1 0x24 PUSH0 REVERT JUMPDEST PUSH1 0x3 DUP2 LT PUSH2 0x2534 JUMPI PUSH4 0x4E487B71 PUSH1 0xE0 SHL PUSH0 MSTORE PUSH1 0x21 PUSH1 0x4 MSTORE PUSH1 0x24 PUSH0 REVERT JUMPDEST SWAP1 MSTORE JUMP JUMPDEST PUSH1 0x20 DUP2 ADD PUSH2 0xEBA DUP3 DUP5 PUSH2 0x2518 JUMP JUMPDEST DUP10 DUP2 MSTORE PUSH1 0x1 PUSH1 0x1 PUSH1 0xA0 SHL SUB DUP10 AND PUSH1 0x20 DUP3 ADD MSTORE PUSH1 0x40 DUP2 ADD DUP9 SWAP1 MSTORE PUSH1 0x60 DUP2 ADD DUP8 SWAP1 MSTORE PUSH1 0x80 DUP2 ADD DUP7 SWAP1 MSTORE PUSH1 0xA0 DUP2 ADD DUP6 SWAP1 MSTORE DUP4 ISZERO ISZERO PUSH1 0xC0 DUP3 ADD MSTORE PUSH1 0xE0 DUP2 ADD DUP4 SWAP1 MSTORE PUSH2 0x120 DUP2 ADD PUSH2 0x2596 PUSH2 0x100 DUP4 ADD DUP5 PUSH2 0x2518 JUMP JUMPDEST SWAP11 SWAP10 POP POP POP POP POP POP POP POP POP POP JUMP JUMPDEST DUP1 ISZERO ISZERO DUP2 EQ PUSH2 0x16EB JUMPI PUSH0 DUP1 REVERT JUMPDEST PUSH0 DUP1 PUSH1 0x40 DUP4 DUP6 SUB SLT ISZERO PUSH2 0x25C2 JUMPI PUSH0 DUP1 REVERT JUMPDEST DUP3 CALLDATALOAD SWAP2 POP PUSH1 0x20 DUP4 ADD CALLDATALOAD PUSH2 0x25D4 DUP2 PUSH2 0x25A4 JUMP JUMPDEST DUP1 SWAP2 POP POP SWAP3 POP SWAP3 SWAP1 POP JUMP JUMPDEST PUSH0 PUSH1 0x20 DUP3 DUP5 SUB SLT ISZERO PUSH2 0x25EF JUMPI PUSH0 DUP1 REVERT JUMPDEST PUSH2 0x2341 DUP3 PUSH2 0x2408 JUMP JUMPDEST PUSH0 JUMPDEST DUP4 DUP2 LT ISZERO PUSH2 0x2612 JUMPI DUP2 DUP2 ADD MLOAD DUP4 DUP3 ADD MSTORE PUSH1 0x20 ADD PUSH2 0x25FA JUMP JUMPDEST POP POP PUSH0 SWAP2 ADD MSTORE JUMP JUMPDEST PUSH0 DUP2 MLOAD DUP1 DUP5 MSTORE PUSH2 0x2631 DUP2 PUSH1 0x20 DUP7 ADD PUSH1 0x20 DUP7 ADD PUSH2 0x25F8 JUMP JUMPDEST PUSH1 0x1F ADD PUSH1 0x1F NOT AND SWAP3 SWAP1 SWAP3 ADD PUSH1 0x20 ADD SWAP3 SWAP2 POP POP JUMP JUMPDEST PUSH1 0x20 DUP2 MSTORE PUSH0 DUP3 MLOAD PUSH1 0xA0 PUSH1 0x20 DUP5 ADD MSTORE PUSH2 0x2660 PUSH1 0xC0 DUP5 ADD DUP3 PUSH2 0x261A JUMP JUMPDEST SWAP1 POP PUSH1 0x20 DUP5 ADD MLOAD PUSH1 0x1F NOT DUP5 DUP4 SUB ADD PUSH1 0x40 DUP6 ADD MSTORE PUSH2 0x267D DUP3 DUP3 PUSH2 0x261A JUMP JUMPDEST SWAP2 POP POP PUSH1 0xFF PUSH1 0x40 DUP6 ADD MLOAD AND PUSH1 0x60 DUP5 ADD MSTORE PUSH1 0x60 DUP5 ADD MLOAD PUSH1 0x80 DUP5 ADD MSTORE PUSH1 0x80 DUP5 ADD MLOAD PUSH1 0xA0 DUP5 ADD MSTORE DUP1 SWAP2 POP POP SWAP3 SWAP2 POP POP JUMP JUMPDEST PUSH0 DUP1 PUSH1 0x40 DUP4 DUP6 SUB SLT ISZERO PUSH2 0x26BC JUMPI PUSH0 DUP1 REVERT JUMPDEST PUSH2 0x26C5 DUP4 PUSH2 0x2408 JUMP JUMPDEST SWAP2 POP PUSH1 0x20 DUP4 ADD CALLDATALOAD PUSH2 0x25D4 DUP2 PUSH2 0x25A4 JUMP JUMPDEST DUP1 MLOAD DUP3 MSTORE PUSH1 0x1 DUP1 PUSH1 0xA0 SHL SUB PUSH1 0x20 DUP3 ADD MLOAD AND PUSH1 0x20 DUP4 ADD MSTORE PUSH1 0x40 DUP2 ADD MLOAD PUSH1 0x40 DUP4 ADD MSTORE PUSH1 0x60 DUP2 ADD MLOAD PUSH1 0x60 DUP4 ADD MSTORE PUSH1 0x80 DUP2 ADD MLOAD PUSH1 0x80 DUP4 ADD MSTORE PUSH1 0xA0 DUP2 ADD MLOAD PUSH1 0xA0 DUP4 ADD MSTORE PUSH1 0xC0 DUP2 ADD MLOAD ISZERO ISZERO PUSH1 0xC0 DUP4 ADD MSTORE PUSH1 0xE0 DUP2 ADD MLOAD PUSH1 0xE0 DUP4 ADD MSTORE PUSH2 0x100 DUP1 DUP3 ADD MLOAD PUSH2 0x273C DUP3 DUP6 ADD DUP3 PUSH2 0x2518 JUMP JUMPDEST POP POP POP POP JUMP JUMPDEST PUSH2 0x120 DUP2 ADD PUSH2 0xEBA DUP3 DUP5 PUSH2 0x26D5 JUMP JUMPDEST PUSH1 0x20 DUP1 DUP3 MSTORE DUP3 MLOAD DUP3 DUP3 ADD DUP2 SWAP1 MSTORE PUSH0 SWAP2 SWAP1 DUP5 DUP3 ADD SWAP1 PUSH1 0x40 DUP6 ADD SWAP1 DUP5 JUMPDEST DUP2 DUP2 LT ISZERO PUSH2 0x2793 JUMPI PUSH2 0x277F DUP4 DUP6 MLOAD PUSH2 0x26D5 JUMP JUMPDEST SWAP3 DUP5 ADD SWAP3 PUSH2 0x120 SWAP3 SWAP1 SWAP3 ADD SWAP2 PUSH1 0x1 ADD PUSH2 0x276C JUMP JUMPDEST POP SWAP1 SWAP7 SWAP6 POP POP POP POP POP POP JUMP JUMPDEST PUSH0 DUP1 PUSH0 PUSH1 0x60 DUP5 DUP7 SUB SLT ISZERO PUSH2 0x27B1 JUMPI PUSH0 DUP1 REVERT JUMPDEST PUSH2 0x27BA DUP5 PUSH2 0x2408 JUMP JUMPDEST SWAP6 PUSH1 0x20 DUP6 ADD CALLDATALOAD SWAP6 POP PUSH1 0x40 SWAP1 SWAP5 ADD CALLDATALOAD SWAP4 SWAP3 POP POP POP JUMP JUMPDEST PUSH4 0x4E487B71 PUSH1 0xE0 SHL PUSH0 MSTORE PUSH1 0x12 PUSH1 0x4 MSTORE PUSH1 0x24 PUSH0 REVERT JUMPDEST PUSH0 DUP3 PUSH2 0x27F1 JUMPI PUSH2 0x27F1 PUSH2 0x27CF JUMP JUMPDEST POP MOD SWAP1 JUMP JUMPDEST PUSH4 0x4E487B71 PUSH1 0xE0 SHL PUSH0 MSTORE PUSH1 0x11 PUSH1 0x4 MSTORE PUSH1 0x24 PUSH0 REVERT JUMPDEST DUP1 DUP3 MUL DUP2 ISZERO DUP3 DUP3 DIV DUP5 EQ OR PUSH2 0xEBA JUMPI PUSH2 0xEBA PUSH2 0x27F6 JUMP JUMPDEST PUSH0 DUP3 PUSH2 0x282F JUMPI PUSH2 0x282F PUSH2 0x27CF JUMP JUMPDEST POP DIV SWAP1 JUMP JUMPDEST DUP1 DUP3 ADD DUP1 DUP3 GT ISZERO PUSH2 0xEBA JUMPI PUSH2 0xEBA PUSH2 0x27F6 JUMP JUMPDEST PUSH0 PUSH1 0x1 DUP3 ADD PUSH2 0x2858 JUMPI PUSH2 0x2858 PUSH2 0x27F6 JUMP JUMPDEST POP PUSH1 0x1 ADD SWAP1 JUMP JUMPDEST DUP2 DUP2 SUB DUP2 DUP2 GT ISZERO PUSH2 0xEBA JUMPI PUSH2 0xEBA PUSH2 0x27F6 JUMP JUMPDEST PUSH0 PUSH1 0x20 DUP3 DUP5 SUB SLT ISZERO PUSH2 0x2882 JUMPI PUSH0 DUP1 REVERT JUMPDEST DUP2 MLOAD PUSH2 0x2341 DUP2 PUSH2 0x25A4 JUMP JUMPDEST PUSH4 0x4E487B71 PUSH1 0xE0 SHL PUSH0 MSTORE PUSH1 0x41 PUSH1 0x4 MSTORE PUSH1 0x24 PUSH0 REVERT JUMPDEST PUSH4 0x4E487B71 PUSH1 0xE0 SHL PUSH0 MSTORE PUSH1 0x32 PUSH1 0x4 MSTORE PUSH1 0x24 PUSH0 REVERT JUMPDEST PUSH0 PUSH1 0x20 DUP3 DUP5 SUB SLT ISZERO PUSH2 0x28C5 JUMPI PUSH0 DUP1 REVERT JUMPDEST POP MLOAD SWAP2 SWAP1 POP JUMP JUMPDEST PUSH0 PUSH1 0x20 DUP3 DUP5 SUB SLT ISZERO PUSH2 0x28DC JUMPI PUSH0 DUP1 REVERT JUMPDEST DUP2 MLOAD PUSH8 0xFFFFFFFFFFFFFFFF DUP1 DUP3 GT ISZERO PUSH2 0x28F3 JUMPI PUSH0 DUP1 REVERT JUMPDEST DUP2 DUP5 ADD SWAP2 POP DUP5 PUSH1 0x1F DUP4 ADD SLT PUSH2 0x2906 JUMPI PUSH0 DUP1 REVERT JUMPDEST DUP2 MLOAD DUP2 DUP2 GT ISZERO PUSH2 0x2918 JUMPI PUSH2 0x2918 PUSH2 0x288D JUMP JUMPDEST PUSH1 0x40 MLOAD PUSH1 0x1F DUP3 ADD PUSH1 0x1F NOT SWAP1 DUP2 AND PUSH1 0x3F ADD AND DUP2 ADD SWAP1 DUP4 DUP3 GT DUP2 DUP4 LT OR ISZERO PUSH2 0x2940 JUMPI PUSH2 0x2940 PUSH2 0x288D JUMP JUMPDEST DUP2 PUSH1 0x40 MSTORE DUP3 DUP2 MSTORE DUP8 PUSH1 0x20 DUP5 DUP8 ADD ADD GT ISZERO PUSH2 0x2958 JUMPI PUSH0 DUP1 REVERT JUMPDEST PUSH2 0x2969 DUP4 PUSH1 0x20 DUP4 ADD PUSH1 0x20 DUP9 ADD PUSH2 0x25F8 JUMP JUMPDEST SWAP8 SWAP7 POP POP POP POP POP POP POP JUMP JUMPDEST PUSH0 PUSH1 0x20 DUP3 DUP5 SUB SLT ISZERO PUSH2 0x2984 JUMPI PUSH0 DUP1 REVERT JUMPDEST DUP2 MLOAD PUSH1 0xFF DUP2 AND DUP2 EQ PUSH2 0x2341 JUMPI PUSH0 DUP1 REVERT JUMPDEST PUSH1 0x20 DUP1 DUP3 MSTORE PUSH1 0xA SWAP1 DUP3 ADD MSTORE PUSH10 0x27B7363C9037BBB732B9 PUSH1 0xB1 SHL PUSH1 0x40 DUP3 ADD MSTORE PUSH1 0x60 ADD SWAP1 JUMP INVALID LOG2 PUSH5 0x6970667358 0x22 SLT KECCAK256 SLOAD NUMBER 0xD4 BYTE AND 0xB7 0xE9 0x26 0xCD 0xAA OR BLOBHASH LOG4 0xD1 PUSH30 0x607BCB2C13E1900F8ECEE44726CF30DB2964736F6C634300081800330000 "
		},
		"gasEstimates": {
			"creation": {
				"codeDepositCost": "2146800",
				"executionCost": "infinite",
				"totalCost": "infinite"
			},
			"external": {
				"PRECISION()": "272",
				"addBankBalance(uint256)": "infinite",
				"addPendingBankBalance(uint256)": "infinite",
				"burnAndStakeAddress()": "2381",
				"deposit(uint256)": "infinite",
				"fulfillRandom(uint256,bytes32)": "infinite",
				"gameBank()": "2328",
				"gameRequests(uint256)": "2492",
				"games(uint256)": "19830",
				"gamesCount()": "2415",
				"getDepositOf(address)": "2685",
				"getGame(uint256)": "20359",
				"getGameStatus(uint256)": "2641",
				"getGames(uint256,uint256)": "infinite",
				"getPlayerGames(address,uint256,uint256)": "infinite",
				"getPlayerGamesCount(address)": "2678",
				"getPlayers(uint256,uint256)": "infinite",
				"getPlayersCount()": "2347",
				"getReward(uint256)": "infinite",
				"getTokenInfo(address)": "infinite",
				"lostGamesCount()": "2372",
				"maxBet()": "2417",
				"minBet()": "2395",
				"onLosePercentToProcess()": "2373",
				"owner()": "2491",
				"pendingBank()": "2328",
				"play(uint256,bool)": "infinite",
				"playerGames(address,uint256)": "4795",
				"players(address)": "19718",
				"playersAddresses(uint256)": "2608",
				"playersCount()": "2439",
				"randomGenerator()": "2491",
				"recoverWrongToken(address,uint256)": "infinite",
				"setBurnAndStakeAddress(address)": "26842",
				"setMaxBet(uint256)": "24551",
				"setMinBet(uint256)": "24595",
				"setOnLoseToProcess(uint256)": "24552",
				"setPlayerBlock(address,bool)": "26978",
				"setWinMultiplier(uint256)": "24618",
				"token()": "2490",
				"totalLostAmount()": "2329",
				"totalPlayersDeposit()": "2327",
				"totalWonAmount()": "2350",
				"transferOwnerShip(address)": "26820",
				"winMultiplier()": "2350",
				"withdraw(uint256)": "infinite",
				"withdrawBankBalance(uint256)": "infinite",
				"wonGamesCount()": "2393"
			}
		},
		"methodIdentifiers": {
			"PRECISION()": "aaf5eb68",
			"addBankBalance(uint256)": "3ed5cf7e",
			"addPendingBankBalance(uint256)": "90619fa2",
			"burnAndStakeAddress()": "773ed91e",
			"deposit(uint256)": "b6b55f25",
			"fulfillRandom(uint256,bytes32)": "07964f5e",
			"gameBank()": "c85e3499",
			"gameRequests(uint256)": "92a52e81",
			"games(uint256)": "117a5b90",
			"gamesCount()": "fb632b7c",
			"getDepositOf(address)": "5d602c00",
			"getGame(uint256)": "a2f77bcc",
			"getGameStatus(uint256)": "0f1bf454",
			"getGames(uint256,uint256)": "ac451185",
			"getPlayerGames(address,uint256,uint256)": "f538fca4",
			"getPlayerGamesCount(address)": "bb2ea49a",
			"getPlayers(uint256,uint256)": "0d2dce22",
			"getPlayersCount()": "a76594bf",
			"getReward(uint256)": "1c4b774b",
			"getTokenInfo(address)": "1f69565f",
			"lostGamesCount()": "d7f5e913",
			"maxBet()": "2e5b2168",
			"minBet()": "9619367d",
			"onLosePercentToProcess()": "22d4bcbd",
			"owner()": "8da5cb5b",
			"pendingBank()": "a5eb64e1",
			"play(uint256,bool)": "12508ea4",
			"playerGames(address,uint256)": "0a5694c2",
			"players(address)": "e2eb41ff",
			"playersAddresses(uint256)": "472016da",
			"playersCount()": "a3f67d6d",
			"randomGenerator()": "dcbad90d",
			"recoverWrongToken(address,uint256)": "3c28f9ce",
			"setBurnAndStakeAddress(address)": "dbbe2550",
			"setMaxBet(uint256)": "881eff1e",
			"setMinBet(uint256)": "88ea41b9",
			"setOnLoseToProcess(uint256)": "95dd9a3e",
			"setPlayerBlock(address,bool)": "3ef1b181",
			"setWinMultiplier(uint256)": "31cd3e7b",
			"token()": "fc0c546a",
			"totalLostAmount()": "322668a4",
			"totalPlayersDeposit()": "e1496286",
			"totalWonAmount()": "7db8177b",
			"transferOwnerShip(address)": "8863dd1a",
			"winMultiplier()": "cf24141a",
			"withdraw(uint256)": "2e1a7d4d",
			"withdrawBankBalance(uint256)": "d8404d17",
			"wonGamesCount()": "fa0116c0"
		}
	},
	"abi": [
		{
			"inputs": [
				{
					"internalType": "address",
					"name": "_tokenAddress",
					"type": "address"
				},
				{
					"internalType": "address",
					"name": "_randomGeneratorAddress",
					"type": "address"
				},
				{
					"internalType": "address",
					"name": "_burnAndStakeAddress",
					"type": "address"
				}
			],
			"stateMutability": "nonpayable",
			"type": "constructor"
		},
		{
			"anonymous": false,
			"inputs": [
				{
					"indexed": true,
					"internalType": "address",
					"name": "player",
					"type": "address"
				},
				{
					"indexed": false,
					"internalType": "uint256",
					"name": "amount",
					"type": "uint256"
				}
			],
			"name": "Deposit",
			"type": "event"
		},
		{
			"anonymous": false,
			"inputs": [
				{
					"indexed": true,
					"internalType": "address",
					"name": "player",
					"type": "address"
				},
				{
					"indexed": false,
					"internalType": "uint256",
					"name": "gameId",
					"type": "uint256"
				},
				{
					"indexed": false,
					"internalType": "uint256",
					"name": "requestId",
					"type": "uint256"
				},
				{
					"indexed": false,
					"internalType": "uint256",
					"name": "betAmount",
					"type": "uint256"
				},
				{
					"indexed": false,
					"internalType": "bool",
					"name": "chosenSide",
					"type": "bool"
				}
			],
			"name": "GameRequested",
			"type": "event"
		},
		{
			"anonymous": false,
			"inputs": [
				{
					"indexed": true,
					"internalType": "address",
					"name": "player",
					"type": "address"
				},
				{
					"indexed": false,
					"internalType": "uint256",
					"name": "gameId",
					"type": "uint256"
				},
				{
					"indexed": false,
					"internalType": "uint256",
					"name": "requestId",
					"type": "uint256"
				},
				{
					"indexed": false,
					"internalType": "uint256",
					"name": "betAmount",
					"type": "uint256"
				},
				{
					"indexed": false,
					"internalType": "bool",
					"name": "won",
					"type": "bool"
				},
				{
					"indexed": false,
					"internalType": "uint256",
					"name": "reward",
					"type": "uint256"
				}
			],
			"name": "GameResult",
			"type": "event"
		},
		{
			"anonymous": false,
			"inputs": [
				{
					"indexed": true,
					"internalType": "address",
					"name": "player",
					"type": "address"
				},
				{
					"indexed": false,
					"internalType": "uint256",
					"name": "amount",
					"type": "uint256"
				}
			],
			"name": "Withdraw",
			"type": "event"
		},
		{
			"inputs": [],
			"name": "PRECISION",
			"outputs": [
				{
					"internalType": "uint256",
					"name": "",
					"type": "uint256"
				}
			],
			"stateMutability": "view",
			"type": "function"
		},
		{
			"inputs": [
				{
					"internalType": "uint256",
					"name": "amount",
					"type": "uint256"
				}
			],
			"name": "addBankBalance",
			"outputs": [],
			"stateMutability": "nonpayable",
			"type": "function"
		},
		{
			"inputs": [
				{
					"internalType": "uint256",
					"name": "amount",
					"type": "uint256"
				}
			],
			"name": "addPendingBankBalance",
			"outputs": [],
			"stateMutability": "nonpayable",
			"type": "function"
		},
		{
			"inputs": [],
			"name": "burnAndStakeAddress",
			"outputs": [
				{
					"internalType": "address",
					"name": "",
					"type": "address"
				}
			],
			"stateMutability": "view",
			"type": "function"
		},
		{
			"inputs": [
				{
					"internalType": "uint256",
					"name": "amount",
					"type": "uint256"
				}
			],
			"name": "deposit",
			"outputs": [],
			"stateMutability": "nonpayable",
			"type": "function"
		},
		{
			"inputs": [
				{
					"internalType": "uint256",
					"name": "requestId",
					"type": "uint256"
				},
				{
					"internalType": "bytes32",
					"name": "random",
					"type": "bytes32"
				}
			],
			"name": "fulfillRandom",
			"outputs": [],
			"stateMutability": "nonpayable",
			"type": "function"
		},
		{
			"inputs": [],
			"name": "gameBank",
			"outputs": [
				{
					"internalType": "uint256",
					"name": "",
					"type": "uint256"
				}
			],
			"stateMutability": "view",
			"type": "function"
		},
		{
			"inputs": [
				{
					"internalType": "uint256",
					"name": "",
					"type": "uint256"
				}
			],
			"name": "gameRequests",
			"outputs": [
				{
					"internalType": "uint256",
					"name": "",
					"type": "uint256"
				}
			],
			"stateMutability": "view",
			"type": "function"
		},
		{
			"inputs": [
				{
					"internalType": "uint256",
					"name": "",
					"type": "uint256"
				}
			],
			"name": "games",
			"outputs": [
				{
					"internalType": "uint256",
					"name": "gameId",
					"type": "uint256"
				},
				{
					"internalType": "address",
					"name": "player",
					"type": "address"
				},
				{
					"internalType": "uint256",
					"name": "amount",
					"type": "uint256"
				},
				{
					"internalType": "uint256",
					"name": "wonAmount",
					"type": "uint256"
				},
				{
					"internalType": "bytes32",
					"name": "random",
					"type": "bytes32"
				},
				{
					"internalType": "uint256",
					"name": "requestId",
					"type": "uint256"
				},
				{
					"internalType": "bool",
					"name": "chosenSide",
					"type": "bool"
				},
				{
					"internalType": "uint256",
					"name": "timestamp",
					"type": "uint256"
				},
				{
					"internalType": "enum FlipCoinGame.GameStatus",
					"name": "status",
					"type": "uint8"
				}
			],
			"stateMutability": "view",
			"type": "function"
		},
		{
			"inputs": [],
			"name": "gamesCount",
			"outputs": [
				{
					"internalType": "uint256",
					"name": "",
					"type": "uint256"
				}
			],
			"stateMutability": "view",
			"type": "function"
		},
		{
			"inputs": [
				{
					"internalType": "address",
					"name": "player",
					"type": "address"
				}
			],
			"name": "getDepositOf",
			"outputs": [
				{
					"internalType": "uint256",
					"name": "",
					"type": "uint256"
				}
			],
			"stateMutability": "view",
			"type": "function"
		},
		{
			"inputs": [
				{
					"internalType": "uint256",
					"name": "gameId",
					"type": "uint256"
				}
			],
			"name": "getGame",
			"outputs": [
				{
					"components": [
						{
							"internalType": "uint256",
							"name": "gameId",
							"type": "uint256"
						},
						{
							"internalType": "address",
							"name": "player",
							"type": "address"
						},
						{
							"internalType": "uint256",
							"name": "amount",
							"type": "uint256"
						},
						{
							"internalType": "uint256",
							"name": "wonAmount",
							"type": "uint256"
						},
						{
							"internalType": "bytes32",
							"name": "random",
							"type": "bytes32"
						},
						{
							"internalType": "uint256",
							"name": "requestId",
							"type": "uint256"
						},
						{
							"internalType": "bool",
							"name": "chosenSide",
							"type": "bool"
						},
						{
							"internalType": "uint256",
							"name": "timestamp",
							"type": "uint256"
						},
						{
							"internalType": "enum FlipCoinGame.GameStatus",
							"name": "status",
							"type": "uint8"
						}
					],
					"internalType": "struct FlipCoinGame.Game",
					"name": "",
					"type": "tuple"
				}
			],
			"stateMutability": "view",
			"type": "function"
		},
		{
			"inputs": [
				{
					"internalType": "uint256",
					"name": "requestId",
					"type": "uint256"
				}
			],
			"name": "getGameStatus",
			"outputs": [
				{
					"internalType": "enum FlipCoinGame.GameStatus",
					"name": "",
					"type": "uint8"
				}
			],
			"stateMutability": "view",
			"type": "function"
		},
		{
			"inputs": [
				{
					"internalType": "uint256",
					"name": "_offset",
					"type": "uint256"
				},
				{
					"internalType": "uint256",
					"name": "_limit",
					"type": "uint256"
				}
			],
			"name": "getGames",
			"outputs": [
				{
					"components": [
						{
							"internalType": "uint256",
							"name": "gameId",
							"type": "uint256"
						},
						{
							"internalType": "address",
							"name": "player",
							"type": "address"
						},
						{
							"internalType": "uint256",
							"name": "amount",
							"type": "uint256"
						},
						{
							"internalType": "uint256",
							"name": "wonAmount",
							"type": "uint256"
						},
						{
							"internalType": "bytes32",
							"name": "random",
							"type": "bytes32"
						},
						{
							"internalType": "uint256",
							"name": "requestId",
							"type": "uint256"
						},
						{
							"internalType": "bool",
							"name": "chosenSide",
							"type": "bool"
						},
						{
							"internalType": "uint256",
							"name": "timestamp",
							"type": "uint256"
						},
						{
							"internalType": "enum FlipCoinGame.GameStatus",
							"name": "status",
							"type": "uint8"
						}
					],
					"internalType": "struct FlipCoinGame.Game[]",
					"name": "ret",
					"type": "tuple[]"
				}
			],
			"stateMutability": "view",
			"type": "function"
		},
		{
			"inputs": [
				{
					"internalType": "address",
					"name": "player",
					"type": "address"
				},
				{
					"internalType": "uint256",
					"name": "_offset",
					"type": "uint256"
				},
				{
					"internalType": "uint256",
					"name": "_limit",
					"type": "uint256"
				}
			],
			"name": "getPlayerGames",
			"outputs": [
				{
					"components": [
						{
							"internalType": "uint256",
							"name": "gameId",
							"type": "uint256"
						},
						{
							"internalType": "address",
							"name": "player",
							"type": "address"
						},
						{
							"internalType": "uint256",
							"name": "amount",
							"type": "uint256"
						},
						{
							"internalType": "uint256",
							"name": "wonAmount",
							"type": "uint256"
						},
						{
							"internalType": "bytes32",
							"name": "random",
							"type": "bytes32"
						},
						{
							"internalType": "uint256",
							"name": "requestId",
							"type": "uint256"
						},
						{
							"internalType": "bool",
							"name": "chosenSide",
							"type": "bool"
						},
						{
							"internalType": "uint256",
							"name": "timestamp",
							"type": "uint256"
						},
						{
							"internalType": "enum FlipCoinGame.GameStatus",
							"name": "status",
							"type": "uint8"
						}
					],
					"internalType": "struct FlipCoinGame.Game[]",
					"name": "ret",
					"type": "tuple[]"
				}
			],
			"stateMutability": "view",
			"type": "function"
		},
		{
			"inputs": [
				{
					"internalType": "address",
					"name": "player",
					"type": "address"
				}
			],
			"name": "getPlayerGamesCount",
			"outputs": [
				{
					"internalType": "uint256",
					"name": "",
					"type": "uint256"
				}
			],
			"stateMutability": "view",
			"type": "function"
		},
		{
			"inputs": [
				{
					"internalType": "uint256",
					"name": "_offset",
					"type": "uint256"
				},
				{
					"internalType": "uint256",
					"name": "_limit",
					"type": "uint256"
				}
			],
			"name": "getPlayers",
			"outputs": [
				{
					"components": [
						{
							"internalType": "address",
							"name": "playerAddress",
							"type": "address"
						},
						{
							"internalType": "uint256",
							"name": "balance",
							"type": "uint256"
						},
						{
							"internalType": "uint256",
							"name": "totalBets",
							"type": "uint256"
						},
						{
							"internalType": "uint256",
							"name": "totalWon",
							"type": "uint256"
						},
						{
							"internalType": "uint256",
							"name": "totalLost",
							"type": "uint256"
						},
						{
							"internalType": "uint256",
							"name": "wonGames",
							"type": "uint256"
						},
						{
							"internalType": "uint256",
							"name": "lostGames",
							"type": "uint256"
						},
						{
							"internalType": "uint256",
							"name": "lastGame",
							"type": "uint256"
						},
						{
							"internalType": "bool",
							"name": "blocked",
							"type": "bool"
						}
					],
					"internalType": "struct FlipCoinGame.PlayerAccount[]",
					"name": "ret",
					"type": "tuple[]"
				}
			],
			"stateMutability": "view",
			"type": "function"
		},
		{
			"inputs": [],
			"name": "getPlayersCount",
			"outputs": [
				{
					"internalType": "uint256",
					"name": "",
					"type": "uint256"
				}
			],
			"stateMutability": "view",
			"type": "function"
		},
		{
			"inputs": [
				{
					"internalType": "uint256",
					"name": "amount",
					"type": "uint256"
				}
			],
			"name": "getReward",
			"outputs": [
				{
					"internalType": "uint256",
					"name": "",
					"type": "uint256"
				}
			],
			"stateMutability": "view",
			"type": "function"
		},
		{
			"inputs": [
				{
					"internalType": "address",
					"name": "player",
					"type": "address"
				}
			],
			"name": "getTokenInfo",
			"outputs": [
				{
					"components": [
						{
							"internalType": "string",
							"name": "symbol",
							"type": "string"
						},
						{
							"internalType": "string",
							"name": "name",
							"type": "string"
						},
						{
							"internalType": "uint8",
							"name": "decimals",
							"type": "uint8"
						},
						{
							"internalType": "uint256",
							"name": "userBalance",
							"type": "uint256"
						},
						{
							"internalType": "uint256",
							"name": "userAllowance",
							"type": "uint256"
						}
					],
					"internalType": "struct FlipCoinGame.TokenInfo",
					"name": "ret",
					"type": "tuple"
				}
			],
			"stateMutability": "view",
			"type": "function"
		},
		{
			"inputs": [],
			"name": "lostGamesCount",
			"outputs": [
				{
					"internalType": "uint256",
					"name": "",
					"type": "uint256"
				}
			],
			"stateMutability": "view",
			"type": "function"
		},
		{
			"inputs": [],
			"name": "maxBet",
			"outputs": [
				{
					"internalType": "uint256",
					"name": "",
					"type": "uint256"
				}
			],
			"stateMutability": "view",
			"type": "function"
		},
		{
			"inputs": [],
			"name": "minBet",
			"outputs": [
				{
					"internalType": "uint256",
					"name": "",
					"type": "uint256"
				}
			],
			"stateMutability": "view",
			"type": "function"
		},
		{
			"inputs": [],
			"name": "onLosePercentToProcess",
			"outputs": [
				{
					"internalType": "uint256",
					"name": "",
					"type": "uint256"
				}
			],
			"stateMutability": "view",
			"type": "function"
		},
		{
			"inputs": [],
			"name": "owner",
			"outputs": [
				{
					"internalType": "address",
					"name": "",
					"type": "address"
				}
			],
			"stateMutability": "view",
			"type": "function"
		},
		{
			"inputs": [],
			"name": "pendingBank",
			"outputs": [
				{
					"internalType": "uint256",
					"name": "",
					"type": "uint256"
				}
			],
			"stateMutability": "view",
			"type": "function"
		},
		{
			"inputs": [
				{
					"internalType": "uint256",
					"name": "betAmount",
					"type": "uint256"
				},
				{
					"internalType": "bool",
					"name": "chosenSide",
					"type": "bool"
				}
			],
			"name": "play",
			"outputs": [],
			"stateMutability": "nonpayable",
			"type": "function"
		},
		{
			"inputs": [
				{
					"internalType": "address",
					"name": "",
					"type": "address"
				},
				{
					"internalType": "uint256",
					"name": "",
					"type": "uint256"
				}
			],
			"name": "playerGames",
			"outputs": [
				{
					"internalType": "uint256",
					"name": "",
					"type": "uint256"
				}
			],
			"stateMutability": "view",
			"type": "function"
		},
		{
			"inputs": [
				{
					"internalType": "address",
					"name": "",
					"type": "address"
				}
			],
			"name": "players",
			"outputs": [
				{
					"internalType": "address",
					"name": "playerAddress",
					"type": "address"
				},
				{
					"internalType": "uint256",
					"name": "balance",
					"type": "uint256"
				},
				{
					"internalType": "uint256",
					"name": "totalBets",
					"type": "uint256"
				},
				{
					"internalType": "uint256",
					"name": "totalWon",
					"type": "uint256"
				},
				{
					"internalType": "uint256",
					"name": "totalLost",
					"type": "uint256"
				},
				{
					"internalType": "uint256",
					"name": "wonGames",
					"type": "uint256"
				},
				{
					"internalType": "uint256",
					"name": "lostGames",
					"type": "uint256"
				},
				{
					"internalType": "uint256",
					"name": "lastGame",
					"type": "uint256"
				},
				{
					"internalType": "bool",
					"name": "blocked",
					"type": "bool"
				}
			],
			"stateMutability": "view",
			"type": "function"
		},
		{
			"inputs": [
				{
					"internalType": "uint256",
					"name": "",
					"type": "uint256"
				}
			],
			"name": "playersAddresses",
			"outputs": [
				{
					"internalType": "address",
					"name": "",
					"type": "address"
				}
			],
			"stateMutability": "view",
			"type": "function"
		},
		{
			"inputs": [],
			"name": "playersCount",
			"outputs": [
				{
					"internalType": "uint256",
					"name": "",
					"type": "uint256"
				}
			],
			"stateMutability": "view",
			"type": "function"
		},
		{
			"inputs": [],
			"name": "randomGenerator",
			"outputs": [
				{
					"internalType": "contract IRandomGenerator",
					"name": "",
					"type": "address"
				}
			],
			"stateMutability": "view",
			"type": "function"
		},
		{
			"inputs": [
				{
					"internalType": "address",
					"name": "tokenAddress",
					"type": "address"
				},
				{
					"internalType": "uint256",
					"name": "amount",
					"type": "uint256"
				}
			],
			"name": "recoverWrongToken",
			"outputs": [],
			"stateMutability": "nonpayable",
			"type": "function"
		},
		{
			"inputs": [
				{
					"internalType": "address",
					"name": "newBurnAndStakeAddress",
					"type": "address"
				}
			],
			"name": "setBurnAndStakeAddress",
			"outputs": [],
			"stateMutability": "nonpayable",
			"type": "function"
		},
		{
			"inputs": [
				{
					"internalType": "uint256",
					"name": "newValue",
					"type": "uint256"
				}
			],
			"name": "setMaxBet",
			"outputs": [],
			"stateMutability": "nonpayable",
			"type": "function"
		},
		{
			"inputs": [
				{
					"internalType": "uint256",
					"name": "newValue",
					"type": "uint256"
				}
			],
			"name": "setMinBet",
			"outputs": [],
			"stateMutability": "nonpayable",
			"type": "function"
		},
		{
			"inputs": [
				{
					"internalType": "uint256",
					"name": "newValue",
					"type": "uint256"
				}
			],
			"name": "setOnLoseToProcess",
			"outputs": [],
			"stateMutability": "nonpayable",
			"type": "function"
		},
		{
			"inputs": [
				{
					"internalType": "address",
					"name": "playerAddress",
					"type": "address"
				},
				{
					"internalType": "bool",
					"name": "isBlocked",
					"type": "bool"
				}
			],
			"name": "setPlayerBlock",
			"outputs": [],
			"stateMutability": "nonpayable",
			"type": "function"
		},
		{
			"inputs": [
				{
					"internalType": "uint256",
					"name": "newMultiplier",
					"type": "uint256"
				}
			],
			"name": "setWinMultiplier",
			"outputs": [],
			"stateMutability": "nonpayable",
			"type": "function"
		},
		{
			"inputs": [],
			"name": "token",
			"outputs": [
				{
					"internalType": "contract IERC20",
					"name": "",
					"type": "address"
				}
			],
			"stateMutability": "view",
			"type": "function"
		},
		{
			"inputs": [],
			"name": "totalLostAmount",
			"outputs": [
				{
					"internalType": "uint256",
					"name": "",
					"type": "uint256"
				}
			],
			"stateMutability": "view",
			"type": "function"
		},
		{
			"inputs": [],
			"name": "totalPlayersDeposit",
			"outputs": [
				{
					"internalType": "uint256",
					"name": "",
					"type": "uint256"
				}
			],
			"stateMutability": "view",
			"type": "function"
		},
		{
			"inputs": [],
			"name": "totalWonAmount",
			"outputs": [
				{
					"internalType": "uint256",
					"name": "",
					"type": "uint256"
				}
			],
			"stateMutability": "view",
			"type": "function"
		},
		{
			"inputs": [
				{
					"internalType": "address",
					"name": "newOwner",
					"type": "address"
				}
			],
			"name": "transferOwnerShip",
			"outputs": [],
			"stateMutability": "nonpayable",
			"type": "function"
		},
		{
			"inputs": [],
			"name": "winMultiplier",
			"outputs": [
				{
					"internalType": "uint256",
					"name": "",
					"type": "uint256"
				}
			],
			"stateMutability": "view",
			"type": "function"
		},
		{
			"inputs": [
				{
					"internalType": "uint256",
					"name": "amount",
					"type": "uint256"
				}
			],
			"name": "withdraw",
			"outputs": [],
			"stateMutability": "nonpayable",
			"type": "function"
		},
		{
			"inputs": [
				{
					"internalType": "uint256",
					"name": "amount",
					"type": "uint256"
				}
			],
			"name": "withdrawBankBalance",
			"outputs": [],
			"stateMutability": "nonpayable",
			"type": "function"
		},
		{
			"inputs": [],
			"name": "wonGamesCount",
			"outputs": [
				{
					"internalType": "uint256",
					"name": "",
					"type": "uint256"
				}
			],
			"stateMutability": "view",
			"type": "function"
		}
	]
}